:100000000C94E4000C9470040C9449040C940C01BE
:100010000C940C010C940C010C940C010C94C20A6D
:100020000C940C010C940C010C940C010C940C011C
:100030000C940C010C940C010C940C010C940C010C
:100040000C94FF030C940C010C944E020C942802A7
:100050000C940C010C940C010C940C010C940C01EC
:100060000C940C010C940C010000000024002700EB
:100070002A0000000000250028002B0000000008D6
:10008000000201000003040700000000000000005F
:10009000005EBCE2613FDD83C29C7E20A3FD1F4168
:1000A0009DC3217FFCA2401E5F01E3BD3E6082DC58
:1000B000237D9FC1421CFEA0E1BF5D0380DE3C6248
:1000C000BEE0025CDF81633D7C22C09E1D43A1FF38
:1000D0004618FAA427799BC584DA3866E5BB590728
:1000E000DB856739BAE406581947A5FB7826C49A18
:1000F000653BD987045AB8E6A7F91B45C6987A2408
:10010000F8A6441A99C7257B3A6486D85B05E7B9F7
:100110008CD2306EEDB3510F4E10F2AC2F7193CDE7
:10012000114FADF3702ECC92D38D6F31B2EC0E50D7
:10013000AFF1134DCE90722C6D33D18F0C52B0EEC7
:10014000326C8ED0530DEFB1F0AE4C1291CF2D73B7
:10015000CA947628ABF517490856B4EA6937D58BA7
:100160005709EBB536688AD495CB2977F4AA481697
:10017000E9B7550B88D6346A2B7597C94A14F6A887
:10018000742AC896154BA9F7B6E80A54D7896B3577
:1001900002000000002300260029000404040404D7
:1001A0000404040202020202020303030303030124
:1001B00002040810204080010204081020010204FB
:1001C00008102000710F630F11241FBECFEFD8E07D
:1001D000DEBFCDBF11E0A0E0B1E0E4E2F8E202C092
:1001E00005900D92A03CB107D9F723E0A0ECB1E057
:1001F00001C01D92A430B207E1F710E0C3EED0E0D9
:1002000004C02197FE010E94E110C23ED107C9F748
:100210000E947E0B0C9405140C940000FC01918D3F
:10022000828D981761F0828DDF01A80FB11D5D9658
:100230008C91928D9F5F9F73928F90E008958FEFC6
:100240009FEF0895FC01918D828D981731F0828D7A
:10025000E80FF11D858D90E008958FEF9FEF0895D1
:10026000FC01918D228D892F90E0805C9F4F821B35
:1002700091098F739927089589E392E00E943001D4
:1002800021E0892B09F420E0822F0895FC01848D60
:10029000DF01A80FB11DA35ABF4F2C91848D90E0B0
:1002A00001968F739927848FA689B7892C93A0898B
:1002B000B1898C9180648C93938D848D981306C042
:1002C0000288F389E02D80818F7D80830895EF92ED
:1002D000FF920F931F93CF93DF93EC0181E0888F00
:1002E0009B8D8C8D981305C0E889F989808185FDE7
:1002F00024C0F62E0B8D10E00F5F1F4F0F731127D8
:10030000E02E8C8DE8120CC00FB607FCFACFE889FE
:10031000F989808185FFF5CFCE010E944601F1CF9A
:100320008B8DFE01E80FF11DE35AFF4FF0820B8F1A
:10033000EA89FB898081806207C0EE89FF8960833A
:10034000E889F98980818064808381E090E0DF9191
:10035000CF911F910F91FF90EF900895CF93DF936E
:10036000EC01888D8823C9F0EA89FB89808185FDAD
:1003700005C0A889B9898C9186FD0FC00FB607FC0E
:10038000F5CF808185FFF2CFA889B9898C9185FF4F
:10039000EDCFCE010E944601E7CFDF91CF910895C6
:1003A00080E090E0892B29F00E943C0181110C949F
:1003B00000000895833081F028F4813099F0823074
:1003C000A1F008958730A9F08830B9F08430D1F4D5
:1003D000809180008F7D03C0809180008F77809313
:1003E0008000089584B58F7702C084B58F7D84BD69
:1003F00008958091B0008F7703C08091B0008F7D09
:100400008093B00008953FB7F8948091C001909117
:10041000C101A091C201B091C30126B5A89B05C03E
:100420002F3F19F00196A11DB11D3FBFBA2FA92F73
:10043000982F8827820F911DA11DB11DBC01CD01F0
:1004400042E0660F771F881F991F4A95D1F70895DC
:100450001F920F920FB60F9211242F933F934F9339
:100460005F936F937F938F939F93AF93BF93EF931C
:10047000FF9389E392E00E944601FF91EF91BF91C3
:10048000AF919F918F917F916F915F914F913F912C
:100490002F910F900FBE0F901F9018951F920F92E3
:1004A0000FB60F9211242F938F939F93EF93FF9387
:1004B000E0914902F0914A028081E0914F02F0916F
:1004C000500282FD12C09081809152028F5F8F7323
:1004D00020915302821751F0E0915202F0E0E75C64
:1004E000FD4F958F8093520201C08081FF91EF9163
:1004F0009F918F912F910F900FBE0F901F90189585
:10050000CF93DF93282F30E0F901E458FF4F849117
:10051000F901E155FE4FD491F901E556FE4FC49122
:10052000CC2391F081110E94DA01EC2FF0E0EE0F64
:10053000FF1FEF56FE4FA591B491EC91ED2381E0A2
:1005400090E021F480E002C080E090E0DF91CF9164
:1005500008951F93CF93DF93282F30E0F901E458DB
:10056000FF4F8491F901E155FE4FD491F901E55611
:10057000FE4FC491CC23C9F0162F81110E94DA01DD
:10058000EC2FF0E0EE0FFF1FEE58FF4FA591B49156
:100590008FB7F894111105C09C91ED2FE095E923D8
:1005A00002C0EC91ED2BEC938FBFDF91CF911F91A7
:1005B0000895CF93DF9390E0FC01E155FE4F249125
:1005C000FC01E556FE4F8491882361F190E0880F8D
:1005D000991FFC01E859FF4FC591D491FC01EE58D9
:1005E000FF4FA591B491611109C09FB7F89488811C
:1005F000209582238883EC912E230BC0623061F416
:100600009FB7F8943881822F809583238883EC915B
:100610002E2B2C939FBF06C08FB7F894E8812E2B0A
:1006200028838FBFDF91CF9108958F929F92AF92D1
:10063000BF92CF92DF92EF92FF926B017C010E94FA
:1006400003024B015C01C114D104E104F104F1F097
:100650000E940302DC01CB0188199909AA09BB0990
:10066000883E9340A105B10570F321E0C21AD1087C
:10067000E108F10888EE880E83E0981EA11CB11CE9
:10068000C114D104E104F10419F7DDCFFF90EF901C
:10069000DF90CF90BF90AF909F908F900895089576
:1006A0000895CF93DF93EC0160E08E810E94A90250
:1006B00061E08E810E94A90260E08E810E94A90201
:1006C0008BE891E00197F1F7DF91CF910895CF93F7
:1006D000DF9382E00E948002EC0183E00E948002AE
:1006E000CC0FDD1F8C2B9D2B20911D0230911E0203
:1006F000220F331F220F331F282B392B2D303105AA
:1007000049F02430310531F02230310519F02B3019
:100710003105A1F44091C4015091C5016091C60119
:100720007091C7014F5F5F4F6F4F7F4F4093C40180
:100730005093C5016093C6017093C7012E303105F7
:1007400049F0A901475051094230510518F02130B4
:100750003105A1F44091C4015091C5016091C601D9
:100760007091C70141505109610971094093C40159
:100770005093C5016093C6017093C70190931E0208
:1007800080931D028091C4019091C501A091C60182
:10079000B091C701C297A105B1056CF082E390E06A
:1007A000A0E0B0E08093C4019093C501A093C6017E
:1007B000B093C70115C08091C4019091C501A0916B
:1007C000C601B091C701181619061A061B0644F097
:1007D0001092C4011092C5011092C6011092C70177
:1007E000DF91CF9108952FB7F89460912E02709108
:1007F0002F0280913002909131022FBF08951F92F5
:100800000F920FB60F9211242F933F938F939F93C4
:10081000AF93BF9380912E0290912F02A09130024E
:10082000B091310230912D0223E0230F2D3720F4B7
:100830000196A11DB11D05C026E8230F0296A11D3A
:10084000B11D20932D0280932E0290932F02A0932E
:100850003002B09331028091C0019091C101A0910A
:10086000C201B091C3010196A11DB11D8093C001C9
:100870009093C101A093C201B093C301BF91AF9106
:100880009F918F913F912F910F900FBE0F901F90CE
:1008900018951F920F920FB60F9211242F933F932A
:1008A0004F935F936F937F938F939F93AF93BF9378
:1008B000EF93FF93E0910201F09103010995FF91FD
:1008C000EF91BF91AF919F918F917F916F915F91C8
:1008D0004F913F912F910F900FBE0F901F90189541
:1008E0001F920F920FB60F9211242F933F934F93A5
:1008F0005F936F937F938F939F93AF93BF93EF9388
:10090000FF93E0910001F09101010995FF91EF91B2
:10091000BF91AF919F918F917F916F915F914F9117
:100920003F912F910F900FBE0F901F901895DC01F3
:10093000E0E0615038F08D91E827F0E0E057FF4F9C
:10094000E491F7CF8E2F0895FC0190810180F28110
:10095000E02DF8948181892B81832281892F8095D4
:1009600028232283A7E0B0E01197F1F721818223A9
:100970008183A3E2B0E01197F1F780817894EFECE6
:10098000F0E03197F1F7982381E009F480E00895D1
:10099000FC0190810180F281E02D892F809560FF1C
:1009A00012C0F8942281822382838181892B8183E2
:1009B000A3E2B0E01197F1F78281982B92837894AB
:1009C00087ED90E011C0F894228182238283818197
:1009D000892B8183AFEFB0E01197F1F78281982BDB
:1009E000928378948FE090E00197F1F70895CF9289
:1009F000DF92EF92FF920F931F93CF93DF931F929B
:100A0000CDB7DEB76C01E62E08E010E0FF24F394CA
:100A100061E08F2D8E2109F460E0C60149830E94B8
:100A2000C804FF0C0150110949810115110581F716
:100A3000411115C0F894D6011196ED91FC911297D1
:100A400091818C918095892381831196ED91FC9100
:100A5000129792818C9180958923828378940F904C
:100A6000DF91CF911F910F91FF90EF90DF90CF908A
:100A70000895CF92DF92EF92FF920F931F93CF933F
:100A8000DF931F92CDB7DEB78C01F62E40E065E50F
:100A900079830E94F704CF2C7981D72E760188E0E4
:100AA000E80EF11CF60161916F0140E0C8010E945F
:100AB000F704CE14DF04B1F70F90DF91CF911F91AF
:100AC0000F91FF90EF90DF90CF900895FC019081FF
:100AD0000180F281E02DF8948181292F20958223D5
:100AE000818378948DE743E050E0815021F1DA0171
:100AF0001197F1F730813923C1F3F8948281822371
:100B000082838181892B81837894ABE7B7E0119749
:100B1000F1F7F894818128232183A3E1B1E01197B3
:100B2000F1F78081982381E009F080E07894E3E692
:100B3000F6E03197F1F708956F927F928F929F922E
:100B4000AF92BF92CF92DF92EF92FF920F931F93DB
:100B5000CF93DF9300D0CDB7DEB78C017A01FC01D3
:100B60008581968169837A830E94660569817A818D
:100B7000882391F1F801858196810E94390540E032
:100B80006EEBF801858196810E94F70437015701C9
:100B9000F9E0AF0EB11CF8018580968088E0C82E80
:100BA000D12CEE24E394F12CC4010E94A404811101
:100BB000FE28EE0CF1E0CF1AD108B1F7F301F19263
:100BC0003F01EA15FB0539F7F801858196810E94FE
:100BD000660591E0813009F090E0892F0F900F9029
:100BE000DF91CF911F910F91FF90EF90DF90CF9009
:100BF000BF90AF909F908F907F906F900895CF930C
:100C0000DF93CDB7DEB729970FB6F894DEBF0FBEDE
:100C1000CDBFFB012081203119F1AE014F5F5F4F45
:100C20000E949C05882379F068E0CE0101960E941D
:100C300097049985891307C008C0803458F08F3510
:100C400069F08F3769F080E00CC08D818F33A9F790
:100C50008AE007C08F31B9F789E003C08BE001C09B
:100C60008CE029960FB6F894DEBF0FBECDBFDF91A2
:100C7000CF910895EF92FF920F931F93CF93DF933D
:100C80007C018B01D42FDC011596ED91FC91169718
:100C9000138615861486DF011B9633961E92AE17B7
:100CA000BF07E1F7C0E0B801D70115968D919C917F
:100CB00016970E94CA09811102C080E010C0CD13AE
:100CC0000AC067E0C8010E949704F8019781891360
:100CD00002C081E004C0CF5FDC1778F3E4CFDF917E
:100CE000CF911F910F91FF90EF9008959F92AF9237
:100CF000BF92CF92DF92EF92FF920F931F93CF9309
:100D0000DF93CDB7DEB761970FB6F894DEBF0FBEA5
:100D1000CDBF8C01693020F06D3018F06CE001C05F
:100D200069E0F8016183E12CF12C8FE5C82E9FE783
:100D3000B92E2FE1A22E3FE3932EF801848190E09B
:100D4000E816F9060CF08BC04E2DBE01665F7F4F92
:100D5000C8010E943A06F801D180AE014F5F5F4F93
:100D6000BE01665F7F4FC8010E949C05882309F47D
:100D700069C068E0CE0101960E94970499858913A5
:100D800061C08A85803109F45DC0FBE0DF1609F49B
:100D900062C08CE0D8125AC0BD82F801858196816C
:100DA0000E946605BE01665F7F4FF80185819681CE
:100DB0000E94390540E06EE4F801858196810E9429
:100DC000F70440E06B81F801858196810E94F70469
:100DD00040E06C81F801858196810E94F7048A8544
:100DE000803139F040E06D81F801858196810E9463
:100DF000F704F801858196810E946605BE01665F51
:100E00007F4FF801858196810E943905F801408164
:100E100068E4858196810E94F70464E170E080E0D7
:100E200090E00E941503F8018081882331F06AE088
:100E300070E080E090E00E941503F80185819681C2
:100E40000E946605FFEFEF1AFF0A77CFEAE0DE1295
:100E500004C09D82A2CFCD82A0CFAD829ECF6196ED
:100E60000FB6F894DEBF0FBECDBFDF91CF911F91BB
:100E70000F91FF90EF90DF90CF90BF90AF909F9039
:100E80000895CF92DF92EF92FF920F931F93CF932B
:100E9000DF937C016C0187E0C80ED11CC0E0D0E07C
:100EA000062F10E0B8010C2E02C0759567950A94C4
:100EB000E2F76170F60181916F010E94A90221960B
:100EC000C430D10579F7C701DF91CF911F910F9100
:100ED000FF90EF90DF90CF900C945103CF92DF9270
:100EE000EF92FF920F931F93CF93DF93EC01F62EB7
:100EF000642F8C810E94A9028D818F3F19F060E0E0
:100F00000E94A9028F850F2D10E084FF25C06E017D
:100F100087E0C80ED11CE12CF12CB8010E2C02C0C8
:100F2000759567950A94E2F76170F60181916F01FA
:100F30000E94A902FFEFEF1AFF0A88E0E816F10409
:100F400061F7CE01DF91CF911F910F91FF90EF904C
:100F5000DF90CF900C945103B80184E075956795AC
:100F60008A95E1F7CE010E9441076F2DCE01DF91F6
:100F7000CF911F910F91FF90EF90DF90CF900C9445
:100F8000410741E00E946E0781E090E0089540E053
:100F90000C946E0761E00E94C7078BE39FE1019705
:100FA000F1F708953F924F925F926F927F928F92E6
:100FB0009F92AF92BF92CF92DF92EF92FF920F93E8
:100FC0001F93CF93DF9300D01F92CDB7DEB75C01A4
:100FD00020E030E057E6352E44244A94542C320168
:100FE00079E0872E7AE1972EE0E9CE2EE1E0DE2E41
:100FF0000DEA11E0F1ECEF2EF1E0FF2EA216B306A0
:101000000CF4E8C080910C01823119F4F60194913E
:1010100072C08F3F09F0ADC082E180930C01F601F0
:1010200094919F3F09F4A5C0913009F1923009F4E1
:1010300040C0911160C014BC15BC84B5826084BDF1
:1010400085B5816085BDF8018491E82FF0E0EE0F51
:10105000FF1FEE58FF4F8591949190932402809347
:101060002302F70184918093220290E046C01092FF
:1010700080001092810080918100886080938100BF
:1010800080918100816080938100F8018491E82F34
:10109000F0E0EE0FFF1FEE58FF4F85919491909373
:1010A000210280932002F701849180931F0291E036
:1010B00024C01092B0001092B1008091B000826004
:1010C0008093B0008091B10081608093B100F801FD
:1010D0008491E82FF0E0EE0FFF1FEE58FF4F85914F
:1010E00094919093330280933202F701849180931C
:1010F000340292E002C097FD3CC061E082E12A83A5
:101100003B8399830E94D90299812A813B8199234B
:1011100009F44DC0923009F442C09130C1F480917D
:101120008100887F81608093810090928900809205
:101130008800409225025092260260922702709207
:10114000280280916F00826080936F0012C09230FD
:1011500081F489E08093B3004092350250923602C8
:1011600060923702709238028091700082608093A2
:10117000700068EC70E080E090E02A833B830E947E
:10118000150382E10E94970A64E670E080E090E037
:101190000E9415032A813B812F5F3F4F2FCF809103
:1011A000B100887F83608093B1008FECD3CF85B589
:1011B000887F836085BD37BC4092290250922A0205
:1011C00060922B0270922C0280916E00826080935C
:1011D0006E00CFCF0F900F900F90DF91CF911F91A6
:1011E0000F91FF90EF90DF90CF90BF90AF909F90C6
:1011F0008F907F906F905F904F903F900895CF9227
:10120000DF92EF92FF920F931F93CF93DF936C01C6
:101210007A018B01C0E0D0E0CE15DF0589F0D8015E
:101220006D918D01D601ED91FC910190F081E02D41
:10123000C6010995892B11F47E0102C02196ECCFDD
:10124000C701DF91CF911F910F91FF90EF90DF9039
:10125000CF9008950E94BA12EF92FF920F931F93BE
:10126000CF93DF93EC01623018F08F8588608F8711
:101270006B8B1C8A80E48D8B80E18E8B80E58F8B5D
:1012800061E08C810E94D9028D818F3F19F061E06D
:101290000E94D90261E08E810E94D9027E0187E01E
:1012A000E80EF11C00E010E08F8584FD03C084E0AF
:1012B00090E002C088E090E0081719074CF461E064
:1012C000F70181917F010E94D9020F5F1F4FECCF80
:1012D0008BE39DE00197F1F760E08C810E94A90209
:1012E00060E08E810E94A9028D818F3F19F060E03D
:1012F0000E94A9026F8564FD1DC063E0CE010E94BB
:1013000041070BE416E4C8010197F1F763E0CE0151
:101310000E944107C8010197F1F763E0CE010E94E6
:10132000410783E592E00197F1F762E0CE010E9468
:10133000410716C06062CE010E94C7078BE496E4A5
:101340000197F1F76F856062CE010E94C70783E5C0
:1013500092E00197F1F76F856062CE010E94C707A6
:101360006F856062CE010E94C70784E0888B6CE0C5
:10137000CE010E94C707CE010E94CA0782E0898B76
:1013800066E0CE01DF91CF911F910F91FF90EF901A
:101390000C94C707AF92BF92CF92DF92EF92FF9269
:1013A0000F931F93CF93DF931F92CDB7DEB75C01EE
:1013B000D62EE72EFC018585811105C0C5010E944E
:1013C0006605811106C0F50113861586148680E036
:1013D00065C040E060EFC5010E94F70401E0F12C18
:1013E000C12C11E0C5010E94A404682FC5016983C6
:1013F0000E94A4046981613019F48130B9F433C0CA
:101400004F2D50E068131BC0F5018385181730F489
:10141000E40FF51F8381802349F402C0181731F0CF
:1014200060E0193058F4F501148708C0F501EF0D9C
:10143000F11D8381802B838361E009C0C12EF501FA
:10144000E40FF51F9381802F809589238383C50145
:101450000E94C8041F5F000F11F4F39401E0F7E04D
:10146000FF1508F0BFCF113408F4ADCFF501C386E6
:10147000C11002C081E08587F5018381882309F4CA
:10148000A2CFD5011396ED2DFE2D9501255F3F4F7F
:101490008D918193A217B307D9F781E00F90DF9167
:1014A000CF911F910F91FF90EF90DF90CF90BF9061
:1014B000AF900895643008F063E09091E9026917F5
:1014C00010F06FEF690FE62FF0E0EA52FD4F9489BC
:1014D000682F690F606886ED92E00C94C707E9E316
:1014E000F2E0A089B18982E08C93A485B5851C9235
:1014F000A685B7858FEC8C93108EA489B58986E07C
:101500008C93A289B3898C9180618C93A289B389D1
:101510008C9188608C93A289B3898C9180688C931C
:101520000288F389E02D80818F7D808308959091DA
:101530000C01981324C0E0E9F1E0E4919FEF90934F
:101540000C01E130B9F098F0E230C9F490917000EC
:101550009D7F9093700091E09093B0009091B100C6
:10156000987F94609093B1001092B30008C01092DD
:101570006E0005C090916F009D7F90936F0060E0BA
:101580000C94A9021F920F920FB60F9211242F9361
:101590003F934F935F936F937F938F939F93AF93FB
:1015A000BF93EF93FF938091350290913602A09103
:1015B0003702B0913802892B8A2B8B2B51F1809105
:1015C0003402E0913202F0913302908189278083C6
:1015D0008091350290913602A0913702B091380285
:1015E000181619061A061B06C4F48091350290914C
:1015F0003602A0913702B09138020197A109B109D2
:101600008093350290933602A0933702B09338024C
:1016100004C080910C010E94970AFF91EF91BF9145
:10162000AF919F918F917F916F915F914F913F917A
:101630002F910F900FBE0F901F9018956115710597
:1016400079F0FB0101900020E9F73197AF01461BCB
:10165000570BDC01ED91FC910280F381E02D0994A0
:1016600080E090E008954F925F926F927F92EF92A8
:10167000FF920F931F93CF93DF93CDB7DEB7A19760
:101680000FB6F894DEBF0FBECDBF7C01FA01CB01CF
:1016900019A2223008F42AE08E010F5D1F4F422E5E
:1016A000512C612C712CBF01A30192010E94E31304
:1016B000F901CA01015011096A3014F4605D01C0DA
:1016C000695CD8016C93232B242B252B61F7B8017F
:1016D000C7010E941E0BA1960FB6F894DEBF0FBE85
:1016E000CDBFDF91CF911F910F91FF90EF907F9031
:1016F0006F905F904F9008950C941E0BCF93DF93E3
:10170000CDB7DEB760970FB6F894DEBF0FBECDBF82
:10171000789484B5826084BD84B5816084BD85B5CC
:10172000826085BD85B5816085BD80916E008160D8
:1017300080936E001092810080918100826080937E
:101740008100809181008160809381008091800080
:101750008160809380008091B10084608093B100AB
:101760008091B00081608093B00080917A008460A5
:1017700080937A0080917A00826080937A008091D1
:101780007A00816080937A0080917A0080688093EB
:101790007A001092C1001092FB011092FC0110928D
:1017A000FD011092FE011092C9011092CA0110921F
:1017B000CB011092CC0160ED77E080E090E00E94D8
:1017C000150389E392E09093FA018093F9010E9456
:1017D0006F0A0E94F3030091C9011091CA01209180
:1017E000CB013091CC01DC01CB01801B910BA20B12
:1017F000B30BC297A105B10538F463E070E080E057
:1018000090E00E941503E5CF0E94F3036093C901A5
:101810007093CA018093CB019093CC016BE371E08C
:101820008091F9019091FA010E947C0B6AE070E0CE
:1018300080E090E00E94150381E08093CD0160E09C
:101840000E94D90260E08CE00E94D90260E088E04A
:101850000E94D90260E082E00E94D90260E083E049
:101860000E94D90260E089E00E94D90260E085E030
:101870000E94D90261E084E00E94D90261E082E125
:101880000E94D90261E08AE00E94D90261E086E00C
:101890000E94D90261E082E10E94D90261E084E005
:1018A0000E94A90261E082E00E94A90261E083E057
:1018B0000E94A90261E081E00E94A90261E089E042
:1018C0000E94A90261E085E00E94A90227E633E0B8
:1018D0003093010120930001809169008C7F826028
:1018E00080936900E89A309303012093020180916C
:1018F0006900837F886080936900E99A88E0E3E16A
:10190000F1E0DE01199601900D928A95E1F768E405
:1019100086ED92E00E94C7078E01075F1F4F6E01A0
:1019200021E1C20ED11C7801F80161918F0186ED91
:1019300092E00E94C1070C151D05B1F788E0EBE1AC
:10194000F1E0DE01119601900D928A95E1F760E5D4
:1019500086ED92E00E94C7078E010F5F1F4FF801CE
:1019600061918F0186ED92E00E94C1070E151F055F
:10197000B1F762E086ED92E00E942C098CE0809342
:10198000FA026CE08091F0029091F1020E947606DA
:1019900062E086ED92E00E94C7078BE39FE101972A
:1019A000F1F786ED92E00E94CA070E94F30360936C
:1019B000190270931A0280931B0290931C020E94DA
:1019C000F30360930C0270930D0280930E029093C8
:1019D0000F020E946F0A60E070E0CB016B017C0196
:1019E000F7FAF094F7F8F0949B01AC010E94BF1253
:1019F00087FF05C03C2C1D2D0E2D2F2C04C0312C33
:101A000010E000E0212CC12CD12C760181E00E9455
:101A10008002892B91F50E94F30360931902709361
:101A20001A0280931B0290931C0240901502509062
:101A3000160260901702709018029B01AC012419E5
:101A400035094609570929013A0138EC4316510472
:101A50006104710490F060931502709316028093F4
:101A60001702909318029091140281E098279093A6
:101A7000140280930B0180930A0189E00E94800286
:101A8000892B19F481E0809313028CE00E9480027C
:101A9000019719F481E08093120288E00E9480028D
:101AA000019719F481E08093110280910901882344
:101AB000B9F186ED92E00E94CA0760E080E00E94E2
:101AC0005A0A6DE471E086ED92E00E947C0B61E0C1
:101AD00080E00E945A0A6EE571E086ED92E00E9475
:101AE0007C0B61E085E00E945A0A63E671E086EDB6
:101AF00092E00E947C0B61E08BE00E945A0A69E64A
:101B000071E086ED92E00E947C0B1092090164EC7A
:101B100079E080E090E00E94150381E0809310025C
:101B200080911002882309F458C00E94F303609347
:101B3000190270931A0280931B0290931C0240902A
:101B40000C0250900D0260900E0270900F029B01EB
:101B5000AC01241935094609570929013A0130E237
:101B6000431633E0530661047104B8F160930C022C
:101B700070930D0280930E0290930F0290910401D6
:101B800081E089278093040186ED92E00E94CA07D4
:101B900060E082E00E945A0A6FE671E086ED92E012
:101BA0000E947C0B80910401882351F061E080E069
:101BB0000E945A0A6CE771E086ED92E00E947C0B6D
:101BC00080911302882349F060E084E00E94A9021A
:101BD0001092100281E080930B0280910B02882307
:101BE00051F186ED92E00E94CA0760E080E00E9419
:101BF0005A0A6CE871E086ED92E00E947C0B60E08E
:101C00008FE00E945A0A62E086ED92E00E94C107CE
:101C100061E080E00E945A0A66E971E086ED92E098
:101C20000E947C0B10920B0281E080930A02809349
:101C300009028093080280910A02882309F479C07E
:101C40004090C4015090C5016090C6017090C701DA
:101C5000440C551C661C771C4092040250920502ED
:101C60006092060270920702809105019091060130
:101C7000A0910701B091080184159505A605B70547
:101C800009F440C081E0809303020E94F303609353
:101C9000FF0170930002809301029093020261E0C1
:101CA0008BE00E945A0A44E6441651046104710410
:101CB0001CF061EA71E011C0141415041604170435
:101CC0001CF066EA71E009C02AE0B301A20186EDCA
:101CD00092E00E94330B6BEA71E086ED92E00E9485
:101CE0007C0B8091040290910502A0910602B091B4
:101CF00007028093050190930601A0930701B0931A
:101D0000080117C00E94F3034090FF0150900002A9
:101D10006090010270900202DC01CB0184199509E8
:101D2000A609B709883E9340A105B10510F01092AD
:101D3000030280910902882309F495C0809103026F
:101D4000811191C060E08BE00E945A0A60E070E06F
:101D5000CB019B01AC010E948811882319F06FEA26
:101D600071E024C02FEF3FEF4FE75FE7C701B601F7
:101D70000E94881181110DC02FEF3FEF4FE75FE701
:101D8000C701B6010E94BF1218161CF463EB71E084
:101D90000DC02FEF3FEF4FE75FE460E070E0CB0155
:101DA0000E94831118163CF467EB71E086ED92E017
:101DB0000E941E0B58C02FEF3FEF4FE75FEC60E033
:101DC00070E0CB010E94BF1287FDEECF20E030E033
:101DD000A901CA01B9010E94BF1287FF0BC0E0919F
:101DE000D602F091D7020190F081E02D6DE286EDF0
:101DF00092E009952DEC3CEC4CE45DE3632D712FF2
:101E0000802F922D0E94E8104B015C010E9454111A
:101E10002B013C010E94C4129B01AC01C501B4011D
:101E20000E94E7104B015C012AE0B301A20186ED9C
:101E300092E00E94330B61E671E086ED92E00E9431
:101E40001E0B20E030E040E251E4C501B4010E94E5
:101E500025130E945411AB0160E070E02AE086ED8A
:101E600092E00E94330B80910802882349F160E0E0
:101E700086E00E945A0A80911402882389F080919A
:101E80000B018823E9F082E090E00E94D2076BEB1F
:101E900071E086ED92E00E947C0B10920B0110C065
:101EA00080910A01882361F080E090E00E94D207CF
:101EB00062E971E086ED92E00E947C0B10920A01CB
:101EC0000E94D001A3CDCF93DF93CEEED2E08A81E2
:101ED0009B810E94221288819981DF91CF910C947D
:101EE0002212AF92BF92CF92DF92EF92FF920F93A6
:101EF0001F93CF93DF93CDB7DEB761970FB6F894FA
:101F0000DEBF0FBECDBF10923C0210923B0288EEA6
:101F100093E0A0E0B0E080933D0290933E02A09356
:101F20003F02B093400287E291E090933A0280939F
:101F3000390285EC90E0909346028093450284EC50
:101F400090E0909348028093470280EC90E0909359
:101F50004A028093490281EC90E090934C02809376
:101F60004B0282EC90E090934E0280934D0286ECFF
:101F700090E09093500280934F0210925202109280
:101F8000530210925402109255028EE090E00E948B
:101F90008D117C0160E08DE00E94D902ECEBF1E054
:101FA000E491D701EC93E8EAF1E0E491F0E0EE0F80
:101FB000FF1FEF56FE4F85919491F7019283818325
:101FC0001386158614866701FBE0CF0ED11C5701DE
:101FD00083E0A80EB11CF6011292EA15FB05E1F7A9
:101FE000F092EF02E092EE021092FB021092FC02DD
:101FF0001092FD021092FE021092FF0283E190E027
:102000000E948D118C0180E593E0D80152969C933B
:102010008E9351971696FC92EE92159714961C92F9
:1020200014971C9289E011968C93119781E0129677
:102030008C93129713968C931093F1020093F002F5
:10204000F60112926F01EA15FB05D1F7FF24F39414
:10205000BE01665F7F4FD80115968D919C911697B2
:102060000E94CA09882309F456C067E0CE010A9687
:102070000E94970499898913EBCFD8018C91811123
:1020800027C015968D919C9116970E946605BE01FA
:10209000665F7F4FF801858196810E94390540E097
:1020A00064EBD80115968D919C9116970E94F704C8
:1020B000F801858196810E94A404E82ED801159626
:1020C0008D919C9116970E946605EE2009F476C0CA
:1020D000AE014F5F5F4FBE01665F7F4FC8010E9438
:1020E0009C05F801E180BE01665F7F4FC8010E9438
:1020F000FF058E1520F4D80111968C9106C0BE0103
:10210000665F7F4FC8010E94FF05F80181838481CB
:102110008F5F84839DCF89E08093FA0269E080918C
:10212000F0029091F1020E9476064091FB0262EF6C
:1021300072E08091F0029091F1020E943A061092B2
:10214000D9021092D80287E391E09093D70280934E
:10215000D60286E08093DA028FEF8093DB0287E07D
:102160008093DC028EE08093DD028FE08093DE02BC
:1021700080E18093DF0281E18093E0021092E1022E
:102180001092E2021092E3021092E4021092E50231
:1021900061E086ED92E00E942C0961960FB6F894FA
:1021A000DEBF0FBECDBFDF91CF911F910F91FF908A
:1021B000EF90DF90CF90BF90AF900895F801F0823C
:1021C00087CFEE0FFF1F0590F491E02D0994505832
:1021D000BB27AA270E94FF100C94A9130E949B13EF
:1021E00038F00E94A21320F039F49F3F19F426F42E
:1021F0000C9498130EF4E095E7FB0C949213E92FDE
:102200000E94BA1358F3BA17620773078407950739
:1022100020F079F4A6F50C94DC130EF4E0950B2E67
:10222000BA2FA02D0B01B90190010C01CA01A00128
:102230001124FF27591B99F0593F50F4503E68F183
:102240001A16F040A22F232F342F4427585FF3CFC4
:10225000469537952795A795F0405395C9F77EF495
:102260001F16BA0B620B730B840BBAF09150A1F0DE
:10227000FF0FBB1F661F771F881FC2F70EC0BA0F64
:10228000621F731F841F48F4879577956795B795EC
:10229000F7959E3F08F0B0CF9395880F08F09927E7
:1022A000EE0F9795879508950E94C21388F09F5767
:1022B00098F0B92F9927B751B0F0E1F0660F771F6A
:1022C000881F991F1AF0BA95C9F714C0B13091F060
:1022D0000E94DC13B1E008950C94DC13672F782F73
:1022E0008827B85F39F0B93FCCF386957795679525
:1022F000B395D9F73EF490958095709561957F4F91
:102300008F4F9F4F08950E94011308F48FEF089597
:102310000E940113880B990B0895CF93DF938230AD
:10232000910510F482E090E0E0910203F091030344
:1023300020E030E0C0E0D0E0309711F140815181E1
:1023400048175907C0F04817590761F482819381F3
:10235000209719F09B838A832BC09093030380936B
:10236000020326C02115310519F04217530718F44E
:102370009A01BE01DF01EF010280F381E02DDCCF85
:102380002115310509F1281B390B2430310590F452
:1023900012968D919C9113976115710521F0FB01A7
:1023A0009383828304C09093030380930203FD010F
:1023B000329644C0FD01E20FF31F819391932250A6
:1023C00031092D933C933AC02091000330910103D1
:1023D000232B41F420910F01309110013093010320
:1023E0002093000320910D0130910E01211531053C
:1023F00041F42DB73EB74091110150911201241BB9
:10240000350BE0910003F0910103E217F307A0F40C
:102410002E1B3F0B2817390778F0AC014E5F5F4F3A
:102420002417350748F04E0F5F1F50930103409368
:1024300000038193919302C0E0E0F0E0CF01DF91CF
:10244000CF9108950F931F93CF93DF93009709F4D3
:102450008CC0FC013297138212820091020310910A
:1024600003030115110581F420813181820F931F2F
:1024700020910003309101032817390779F5F09373
:102480000103E093000371C0D80140E050E0AE17B3
:10249000BF0750F412962D913C911397AD01211571
:1024A000310509F1D901F3CF9D01DA01338322838C
:1024B00060817181860F971F8217930769F4EC0181
:1024C00028813981260F371F2E5F3F4F31832083AC
:1024D0008A819B8193838283452B29F4F0930303A4
:1024E000E093020342C01396FC93EE931297ED0122
:1024F000499159919E01240F351FE217F30771F49A
:1025000080819181840F951F029611969C938E93E2
:102510008281938113969C938E931297E0E0F0E072
:10252000D80112968D919C911397009719F0F8019C
:102530008C01F6CF8D919C9198012E5F3F4F820FB9
:10254000931F20910003309101032817390769F484
:10255000309729F4109203031092020302C01382F1
:1025600012821093010300930003DF91CF911F911A
:102570000F91089581E090E0F8940C9405140E9466
:10258000011308F481E00895E89409C097FB3EF434
:1025900090958095709561957F4F8F4F9F4F9923B0
:1025A000A9F0F92F96E9BB279395F695879577952E
:1025B0006795B795F111F8CFFAF4BB0F11F460FFEE
:1025C0001BC06F5F7F4F8F4F9F4F16C0882311F046
:1025D00096E911C0772321F09EE8872F762F05C05A
:1025E000662371F096E8862F70E060E02AF09A95F5
:1025F000660F771F881FDAF7880F9695879597F9EA
:102600000895990F0008550FAA0BE0E8FEEF161683
:102610001706E807F907C0F012161306E407F507D6
:1026200098F0621B730B840B950B39F40A2661F04A
:10263000232B242B252B21F408950A2609F4A140ED
:10264000A6958FEF811D811D08950E9438130C946B
:10265000A9130E949B1338F00E94A21320F0952327
:1026600011F00C9492130C94981311240C94DD1314
:102670000E94BA1370F3959FC1F3950F50E0551F58
:10268000629FF001729FBB27F00DB11D639FAA27C7
:10269000F00DB11DAA1F649F6627B00DA11D661F16
:1026A000829F2227B00DA11D621F739FB00DA11D37
:1026B000621F839FA00D611D221F749F3327A00DF1
:1026C000611D231F849F600D211D822F762F6A2F8D
:1026D00011249F5750409AF0F1F088234AF0EE0FF2
:1026E000FF1FBB1F661F771F881F91505040A9F71F
:1026F0009E3F510580F00C9492130C94DD135F3FC4
:10270000E4F3983ED4F3869577956795B795F7955A
:10271000E7959F5FC1F7FE2B880F911D96958795D2
:1027200097F9089597F99F6780E870E060E0089551
:102730009FEF80EC089500240A94161617061806D9
:102740000906089500240A941216130614060506B5
:102750000895092E0394000C11F4882352F0BB0F46
:1027600040F4BF2B11F460FF04C06F5F7F4F8F4FA9
:102770009F4F089557FD9058440F551F59F05F3FE4
:1027800071F04795880F97FB991F61F09F3F79F093
:1027900087950895121613061406551FF2CF469515
:1027A000F1DF08C0161617061806991FF1CF869597
:1027B0007105610508940895E894BB27662777277B
:1027C000CB0197F90895A1E21A2EAA1BBB1BFD01AC
:1027D0000DC0AA1FBB1FEE1FFF1FA217B307E40700
:1027E000F50720F0A21BB30BE40BF50B661F771F58
:1027F000881F991F1A9469F7609570958095909538
:102800009B01AC01BD01CF01089510E0C3EED0E003
:1028100004C0FE010E94E1102196C43ED107C9F711
:04282000F894FFCF5A
:102824004F034F030101000000010101FF000004F8
:10283400038000181C1E1F1E1C1800081408030423
:10284400040300000000006701FF0830010E0122AC
:1028540001AE0100000000C107FF08564D44505668
:102864005F317C315F564D4450560D0A004C617304
:10287400657220436F6E74726F6C6C65720056657E
:10288400722E004220302E310031302F3136004478
:102894004320706F776572206F6666007761697494
:1028A40020666F72206B6579206F6E004C617365D2
:1028B40072206F666600496E74656E736974792060
:1028C400006D617820006D696E2000202520006E67
:1028D400616E00696E66006F7666006F6E200000A0
:00000001FF
