:100000000C94E3000C946F040C9448040C940B01C2
:100010000C940B010C940B010C940B010C94660ACC
:100020000C940B010C940B010C940B010C940B0120
:100030000C940B010C940B010C940B010C940B0110
:100040000C94FE030C940B010C944F020C942902A7
:100050000C940B010C940B010C940B010C940B01F0
:100060000C940B010C940B010000000023002600EF
:10007000290004040404040404040202020202022B
:10008000030303030303010204081020408001025C
:1000900004081020010204081020005EBCE2613F49
:1000A000DD83C29C7E20A3FD1F419DC3217FFCA256
:1000B000401E5F01E3BD3E6082DC237D9FC1421C88
:1000C000FEA0E1BF5D0380DE3C62BEE0025CDF813A
:1000D000633D7C22C09E1D43A1FF4618FAA42779E8
:1000E0009BC584DA3866E5BB5907DB856739BAE416
:1000F00006581947A5FB7826C49A653BD987045A48
:10010000B8E6A7F91B45C6987A24F8A6441A99C7F9
:10011000257B3A6486D85B05E7B98CD2306EEDB3A7
:10012000510F4E10F2AC2F7193CD114FADF3702ED5
:10013000CC92D38D6F31B2EC0E50AFF1134DCE9007
:10014000722C6D33D18F0C52B0EE326C8ED0530DB9
:10015000EFB1F0AE4C1291CF2D73CA947628ABF567
:1001600017490856B4EA6937D58B5709EBB5366895
:100170008AD495CB2977F4AA4816E9B7550B88D6C7
:10018000346A2B7597C94A14F6A8742AC896154B79
:10019000A9F7B6E80A54D7896B350000000024009F
:1001A00027002A0000000000250028002B00000086
:1001B0000008000201000003040700000000000026
:1001C00000000200761111241FBECFEFD8E0DEBF81
:1001D000CDBF12E0A0E0B1E0EEE1FAE202C005908E
:1001E0000D92A830B107D9F723E0A8E0B2E001C032
:1001F0001D92AC33B207E1F710E0C3EED0E004C0CB
:100200002197FE010E94E911C23ED107C9F70E9461
:100210000D0B0C940D150C940000FC01918D828D3A
:10022000981761F0828DDF01A80FB11D5D968C914A
:10023000928D9F5F9F73928F90E008958FEF9FEF55
:100240000895FC01918D828D981731F0828DE80F11
:10025000F11D858D90E008958FEF9FEF0895FC01CB
:10026000918D228D892F90E0805C9F4F821B910998
:100270008F739927089583E892E00E942F0121E06F
:10028000892B09F420E0822F0895FC01848DDF0181
:10029000A80FB11DA35ABF4F2C91848D90E00196F9
:1002A0008F739927848FA689B7892C93A089B189E8
:1002B0008C9180648C93938D848D981306C00288F2
:1002C000F389E02D80818F7D80830895EF92FF92E6
:1002D0000F931F93CF93DF93EC0181E0888F9B8D69
:1002E0008C8D981305C0E889F989808185FD24C02B
:1002F000F62E0B8D10E00F5F1F4F0F731127E02EAE
:100300008C8DE8120CC00FB607FCFACFE889F9898A
:10031000808185FFF5CFCE010E944501F1CF8B8D05
:10032000FE01E80FF11DE35AFF4FF0820B8FEA89BF
:10033000FB898081806207C0EE89FF896083E8893C
:10034000F98980818064808381E090E0DF91CF91A2
:100350001F910F91FF90EF900895CF93DF93EC01E1
:10036000888D8823C9F0EA89FB89808185FD05C0D5
:10037000A889B9898C9186FD0FC00FB607FCF5CF0F
:10038000808185FFF2CFA889B9898C9185FFEDCF57
:10039000CE010E944501E7CFDF91CF91089580E023
:1003A00090E0892B29F00E943B0181110C94000000
:1003B0000895833081F028F4813099F08230A1F0E3
:1003C00008958730A9F08830B9F08430D1F4809155
:1003D00080008F7D03C0809180008F7780938000A4
:1003E000089584B58F7702C084B58F7D84BD08954C
:1003F0008091B0008F7703C08091B0008F7D809393
:10040000B00008953FB7F8948091780290917902F6
:10041000A0917A02B0917B0226B5A89B05C02F3F20
:1004200019F00196A11DB11D3FBFBA2FA92F982F1A
:100430008827820F911DA11DB11DBC01CD0142E095
:10044000660F771F881F991F4A95D1F70895089561
:1004500008951F920F920FB60F9211242F933F937E
:100460004F935F936F937F938F939F93AF93BF93BC
:10047000EF93FF9383E892E00E944501FF91EF9193
:10048000BF91AF919F918F917F916F915F914F91AC
:100490003F912F910F900FBE0F901F9018951F92B4
:1004A0000F920FB60F9211242F938F939F93EF9378
:1004B000FF93E0919302F09194028081E091990280
:1004C000F0919A0282FD12C0908180919C028F5F10
:1004D0008F7320919D02821751F0E0919C02F0E011
:1004E000ED57FD4F958F80939C0201C08081FF9155
:1004F000EF919F918F912F910F900FBE0F901F90B2
:100500001895CF93DF93282F30E0F901E255FE4F85
:100510008491F901EA57FF4FD491F901EE58FF4F4A
:10052000C491CC2391F081110E94D901EC2FF0E00D
:10053000EE0FFF1FE859FF4FA591B491EC91ED2309
:1005400081E090E021F480E002C080E090E0DF9163
:10055000CF910895CF93DF9382E00E948102EC0156
:1005600083E00E948102CC0FDD1F8C2B9D2B2091FC
:10057000630230916402220F331F220F331F282B96
:10058000392B2D30310549F02430310531F022303E
:10059000310519F02B303105A1F44091080250913A
:1005A000090260910A0270910B024F5F5F4F6F4F1B
:1005B0007F4F409308025093090260930A027093A0
:1005C0000B022E30310549F0A90147505109423044
:1005D000510518F021303105A1F4409108025091E5
:1005E000090260910A0270910B02415051096109A0
:1005F0007109409308025093090260930A027093B4
:100600000B029093640280936302809108029091A0
:100610000902A0910A02B0910B02C297A105B1058F
:100620006CF082E390E0A0E0B0E080930802909349
:100630000902A0930A02B0930B0215C08091080230
:1006400090910902A0910A02B0910B0218161906A6
:100650001A061B0644F0109208021092090210922A
:100660000A0210920B02DF91CF9108951F93CF934E
:10067000DF93282F30E0F901E255FE4F8491F90114
:10068000EA57FF4FD491F901EE58FF4FC491CC23A4
:10069000C9F0162F81110E94D901EC2FF0E0EE0F66
:1006A000FF1FEC55FE4FA591B4918FB7F89411112F
:1006B00005C09C91ED2FE095E92302C0EC91ED2B54
:1006C000EC938FBFDF91CF911F910895CF93DF936C
:1006D000EC0160E08E810E94360361E08E810E9411
:1006E000360360E08E810E9436038BE891E001972B
:1006F000F1F7DF91CF910895CF93DF9390E0FC0164
:10070000EA57FF4F2491FC01EE58FF4F8491882354
:1007100061F190E0880F991FFC01E656FE4FC591EC
:10072000D491FC01EC55FE4FA591B491611109C023
:100730009FB7F8948881209582238883EC912E239B
:100740000BC0623061F49FB7F8943881822F809596
:1007500083238883EC912E2B2C939FBF06C08FB7E9
:10076000F894E8812E2B28838FBFDF91CF910895D5
:100770008F929F92AF92BF92CF92DF92EF92FF92B1
:100780006B017C010E9402024B015C01C114D10487
:10079000E104F104F1F00E940202DC01CB018819AE
:1007A0009909AA09BB09883E9340A105B10570F3D8
:1007B00021E0C21AD108E108F10888EE880E83E032
:1007C000981EA11CB11CC114D104E104F10419F755
:1007D000DDCFFF90EF90DF90CF90BF90AF909F90D4
:1007E0008F9008952FB7F8946091740270917502FC
:1007F00080917602909177022FBF08951F920F92F9
:100800000FB60F9211242F933F938F939F93AF9323
:10081000BF938091740290917502A0917602B0917D
:1008200077023091730223E0230F2D3720F40196D5
:10083000A11DB11D05C026E8230F0296A11DB11D03
:10084000209373028093740290937502A0937602B2
:10085000B09377028091780290917902A0917A0208
:10086000B0917B020196A11DB11D809378029093F7
:100870007902A0937A02B0937B02BF91AF919F91CE
:100880008F913F912F910F900FBE0F901F90189551
:100890001F920F920FB60F9211242F933F934F93F5
:1008A0005F936F937F938F939F93AF93BF93EF93D8
:1008B000FF93E0910201F09103010995FF91EF91FF
:1008C000BF91AF919F918F917F916F915F914F9168
:1008D0003F912F910F900FBE0F901F9018951F9270
:1008E0000F920FB60F9211242F933F934F935F9364
:1008F0006F937F938F939F93AF93BF93EF93FF93E8
:10090000E0910001F09101010995FF91EF91BF91F4
:10091000AF919F918F917F916F915F914F913F9197
:100920002F910F900FBE0F901F901895DC01E0E003
:10093000615038F08D91E827F0E0E656FF4FE491E2
:10094000F7CF8E2F0895FC0190810180F281E02D78
:10095000F8948181892B81832281892F8095282396
:100960002283A7E0B0E01197F1F7218182238183F0
:10097000A3E2B0E01197F1F780817894EFECF0E01A
:100980003197F1F7982381E009F480E00895FC01A4
:1009900090810180F281E02D892F809560FF12C047
:1009A000F8942281822382838181892B8183A3E22F
:1009B000B0E01197F1F78281982B9283789487EDBC
:1009C00090E011C0F8942281822382838181892B57
:1009D0008183AFEFB0E01197F1F78281982B92837A
:1009E00078948FE090E00197F1F70895CF92DF922D
:1009F000EF92FF920F931F93CF93DF931F92CDB788
:100A0000DEB76C01E62E08E010E0FF24F39461E00D
:100A10008F2D8E2109F460E0C60149830E94C7042E
:100A2000FF0C0150110949810115110581F7411190
:100A300015C0F894D6011196ED91FC911297918111
:100A40008C918095892381831196ED91FC91129769
:100A500092818C9180958923828378940F90DF9185
:100A6000CF911F910F91FF90EF90DF90CF9008955D
:100A7000CF92DF92EF92FF920F931F93CF93DF936A
:100A80001F92CDB7DEB78C01F62E40E065E5798385
:100A90000E94F604CF2C7981D72E760188E0E80EEB
:100AA000F11CF60161916F0140E0C8010E94F6045B
:100AB000CE14DF04B1F70F90DF91CF911F910F910A
:100AC000FF90EF90DF90CF900895FC01908101801E
:100AD000F281E02DF8948181292F20958223818352
:100AE00078948DE743E050E0815021F1DA011197CD
:100AF000F1F730813923C1F3F89482818223828314
:100B00008181892B81837894ABE7B7E01197F1F766
:100B1000F894818128232183A3E1B1E01197F1F7B3
:100B20008081982381E009F080E07894E3E6F6E0A4
:100B30003197F1F708956F927F928F929F92AF92C3
:100B4000BF92CF92DF92EF92FF920F931F93CF93BA
:100B5000DF9300D0CDB7DEB78C017A01FC0185812F
:100B6000968169837A830E94650569817A818823E9
:100B700091F1F801858196810E94380540E06EEB85
:100B8000F801858196810E94F60437015701F9E04A
:100B9000AF0EB11CF8018580968088E0C82ED12C5C
:100BA000EE24E394F12CC4010E94A3048111FE28D9
:100BB000EE0CF1E0CF1AD108B1F7F301F1923F0149
:100BC000EA15FB0539F7F801858196810E946505D4
:100BD00091E0813009F090E0892F0F900F90DF9124
:100BE000CF911F910F91FF90EF90DF90CF90BF902A
:100BF000AF909F908F907F906F900895CF93DF93E9
:100C0000EA010E949B05882339F068E0CE010E942A
:100C1000960491E02885821390E0892FDF91CF918F
:100C20000895CF93DF93CDB7DEB729970FB6F89429
:100C3000DEBF0FBECDBFAE014F5F5F4F0E94FE050E
:100C4000882389F08D818F3361F020F48F3159F43E
:100C500089E00CC08F3519F08F3739F004C08BE074
:100C600005C08AE003C080E001C08CE029960FB681
:100C7000F894DEBF0FBECDBFDF91CF910895DF9214
:100C8000EF92FF920F931F93CF93DF93CDB7DEB711
:100C90002A970FB6F894DEBF0FBECDBF8C017B0143
:100CA000242FAE014F5F5F4F2A870E94FE05D82E8A
:100CB0002A85882309F465C0F7018081803109F411
:100CC00060C02B3041F02C3021F02A3031F48FE31A
:100CD00005C08FE703C08FE501C08FE18D83F80168
:100CE000858196810E946505B701F801858196810D
:100CF0000E94380540E06EE4F801858196810E94EB
:100D0000F60440E06B81F801858196810E94F6042B
:100D100040E06C81F801858196810E94F604F7011C
:100D20008081803139F040E06D81F80185819681C4
:100D30000E94F604F801858196810E946505B7013D
:100D4000F801858196810E943805F801408168E4A8
:100D5000858196810E94F60464E170E080E090E075
:100D60000E94B803F8018081882331F06AE070E0C6
:100D700080E090E00E94B803F801858196810E948E
:100D800065058D2D2A960FB6F894DEBF0FBECDBF38
:100D9000DF91CF911F910F91FF90EF90DF90089519
:100DA000CF92DF92EF92FF920F931F93CF93DF9337
:100DB0007C016C0187E0C80ED11CC0E0D0E0062F9A
:100DC00010E0B8010C2E02C0759567950A94E2F701
:100DD0006170F60181916F010E9436032196C43043
:100DE000D10579F7C701DF91CF911F910F91FF9046
:100DF000EF90DF90CF900C946603CF92DF92EF924A
:100E0000FF920F931F93CF93DF93EC01F62E642F85
:100E10008C810E9436038D818F3F19F060E00E9423
:100E200036038F850F2D10E084FF25C06E0187E00B
:100E3000C80ED11CE12CF12CB8010E2C02C0759506
:100E400067950A94E2F76170F60181916F010E9443
:100E50003603FFEFEF1AFF0A88E0E816F10461F7A6
:100E6000CE01DF91CF911F910F91FF90EF90DF9016
:100E7000CF900C946603B80184E0759567958A95C8
:100E8000E1F7CE010E94D0066F2DCE01DF91CF9108
:100E90001F910F91FF90EF90DF90CF900C94D006B0
:100EA00041E00E94FD0681E090E0089540E00C944E
:100EB000FD0661E00E9456078BE39FE10197F1F781
:100EC00008953F924F925F926F927F928F929F927E
:100ED000AF92BF92CF92DF92EF92FF920F931F9348
:100EE000CF93DF9300D01F92CDB7DEB75C0120E037
:100EF00030E057E6352E44244A94542C320179E0F0
:100F0000872E7AE1972EE2ECCE2EE1E0DE2E04E889
:100F100010E0F8E9EF2EF0E0FF2EA216B3060CF475
:100F2000E8C080910C01823119F4F601949172C0ED
:100F30008F3F09F0ADC082E180930C01F6019491DE
:100F40009F3F09F4A5C0913009F1923009F440C0E7
:100F5000911160C014BC15BC84B5826084BD85B598
:100F6000816085BDF8018491E82FF0E0EE0FFF1F4E
:100F7000EC55FE4F8591949190936A02809369029B
:100F8000F70184918093680290E046C0109280003F
:100F9000109281008091810088608093810080910F
:100FA0008100816080938100F8018491E82FF0E056
:100FB000EE0FFF1FEC55FE4F8591949190936702C1
:100FC00080936602F70184918093650291E024C0CA
:100FD0001092B0001092B1008091B00082608093B6
:100FE000B0008091B10081608093B100F8018491DC
:100FF000E82FF0E0EE0FFF1FEC55FE4F8591949126
:1010000090937D0280937C02F701849180937E020D
:1010100092E002C097FD3CC061E082E12A833B83FD
:1010200099830E947C0399812A813B81992309F449
:101030004DC0923009F442C09130C1F480918100DA
:10104000887F8160809381009092890080928800DF
:1010500040926B0250926C0260926D0270926E022E
:1010600080916F00826080936F0012C0923081F493
:1010700089E08093B30040927F0250928002609298
:101080008102709282028091700082608093700071
:1010900068EC70E080E090E02A833B830E94B80314
:1010A00082E10E943B0A64E670E080E090E00E94EA
:1010B000B8032A813B812F5F3F4F2FCF8091B10032
:1010C000887F83608093B1008FECD3CF85B5887F14
:1010D000836085BD37BC40926F025092700260926F
:1010E00071027092720280916E00826080936E0035
:1010F000CFCF0F900F900F90DF91CF911F910F9155
:10110000FF90EF90DF90CF90BF90AF909F908F9027
:101110007F906F905F904F903F900895611571059B
:1011200079F0FB0101900020E9F73197AF01461BF0
:10113000570BDC01ED91FC910280F381E02D0994C5
:1011400080E090E00895CF92DF92EF92FF920F93AC
:101150001F93CF93DF936C017A018B01C0E0D0E045
:10116000CE15DF0589F0D8016D918D01D601ED9185
:10117000FC910190F081E02DC6010995892B11F4B5
:101180007E0102C02196ECCFC701DF91CF911F9164
:101190000F91FF90EF90DF90CF9008950E94C213BF
:1011A000EF92FF920F931F93CF93DF93EC01623086
:1011B00018F08F8588608F876B8B1C8A80E48D8BFD
:1011C00080E18E8B80E58F8B61E08C810E947C03B7
:1011D0008D818F3F19F061E00E947C0361E08E8178
:1011E0000E947C037E0187E0E80EF11C00E010E025
:1011F0008F8584FD03C084E090E002C088E090E029
:10120000081719074CF461E0F70181917F010E94F2
:101210007C030F5F1F4FECCF8BE39DE00197F1F74D
:1012200060E08C810E94360360E08E810E9436036C
:101230008D818F3F19F060E00E9436036F8564FD59
:101240001DC063E0CE010E94D0060BE416E4C80185
:101250000197F1F763E0CE010E94D006C801019723
:10126000F1F763E0CE010E94D00683E592E001979A
:10127000F1F762E0CE010E94D00616C06062CE0196
:101280000E9456078BE496E40197F1F76F85606240
:10129000CE010E94560783E592E00197F1F76F8532
:1012A0006062CE010E9456076F856062CE010E9487
:1012B000560784E0888B6CE0CE010E945607CE0171
:1012C0000E94590782E0898B66E0CE01DF91CF91C1
:1012D0001F910F91FF90EF900C945607643008F027
:1012E00063E090913303691710F06FEF690FE62FF9
:1012F000F0E0E05EFC4F9489682F690F606880E23F
:1013000093E00C945607E3E8F2E0A089B18982E00B
:101310008C93A485B5851C92A685B78580E18C93B6
:10132000108EA489B58986E08C93A289B3898C91AB
:1013300080618C93A289B3898C9188608C93A289F7
:10134000B3898C9180688C930288F389E02D808129
:101350008F7D80830895AF92BF92CF92DF92EF92FC
:10136000FF920F931F93CF93DF931F92CDB7DEB7FA
:101370005C01D62EE72EFC018585811105C0C501D3
:101380000E946505811106C0F50113861586148635
:1013900080E065C040E060EFC5010E94F60401E016
:1013A000F12CC12C11E0C5010E94A304682FC501D6
:1013B00069830E94A3046981613019F48130B9F412
:1013C00033C04F2D50E068131BC0F50183851817FB
:1013D00030F4E40FF51F8381802349F402C018170D
:1013E00031F060E0193058F4F501148708C0F501B8
:1013F000EF0DF11D8381802B838361E009C0C12E35
:10140000F501E40FF51F9381802F80958923838355
:10141000C5010E94C7041F5F000F11F4F39401E09F
:10142000F7E0FF1508F0BFCF113408F4ADCFF50198
:10143000C386C11002C081E08587F50183818823BE
:1014400009F4A2CFD5011396ED2DFE2D9501255F50
:101450003F4F8D918193A217B307D9F781E00F9089
:10146000DF91CF911F910F91FF90EF90DF90CF9080
:10147000BF90AF90089590910C01981324C0E2ECB6
:10148000F1E0E4919FEF90930C01E130B9F098F016
:10149000E230C9F4909170009D7F9093700091E0CC
:1014A0009093B0009091B100987F94609093B100B8
:1014B0001092B30008C010926E0005C090916F00AA
:1014C0009D7F90936F0060E00C9436031F920F9203
:1014D0000FB60F9211242F933F934F935F936F9307
:1014E0007F938F939F93AF93BF93EF93FF938091DD
:1014F0007F0290918002A0918102B0918202892B9B
:101500008A2B8B2B51F180917E02E0917C02F0912D
:101510007D0290818927808380917F029091800253
:10152000A0918102B0918202181619061A061B06B4
:10153000C4F480917F0290918002A0918102B091C9
:1015400082020197A109B10980937F0290938002E2
:10155000A0938102B093820204C080910C010E948A
:101560003B0AFF91EF91BF91AF919F918F917F9136
:101570006F915F914F913F912F910F900FBE0F9000
:101580001F9018954F925F926F927F92EF92FF9209
:101590000F931F93CF93DF93CDB7DEB7A1970FB60D
:1015A000F894DEBF0FBECDBF7C01FA01CB0119A2BA
:1015B000223008F42AE08E010F5D1F4F422E512C7D
:1015C000612C712CBF01A30192010E94EB14F9015F
:1015D000CA01015011096A3014F4605D01C0695CF0
:1015E000D8016C93232B242B252B61F7B801C7015D
:1015F0000E948E08A1960FB6F894DEBF0FBECDBF35
:10160000DF91CF911F910F91FF90EF907F906F909E
:101610005F904F9008950C948E08CF93DF93CDB7D1
:10162000DEB761970FB6F894DEBF0FBECDBF7894DA
:1016300084B5826084BD84B5816084BD85B58260D7
:1016400085BD85B5816085BD80916E008160809388
:101650006E001092810080918100826080938100F1
:101660008091810081608093810080918000816001
:10167000809380008091B10084608093B10080915C
:10168000B00081608093B00080917A008460809384
:101690007A0080917A00826080937A0080917A004B
:1016A000816080937A0080917A00806880937A00CC
:1016B0001092C10010923F0210924002109241021B
:1016C0001092420210920D0210920E0210920F021E
:1016D0001092100260ED77E080E090E00E94B80385
:1016E00083E892E090933E0280933D020E9483093A
:1016F0000E94F20300910D0210910E0220910F0240
:1017000030911002DC01CB01801B910BA20BB30BBB
:10171000C297A105B10538F463E070E080E090E085
:101720000E94B803E5CF0E94F20360930D0270930C
:101730000E0280930F029093100261E471E0809199
:101740003D0290913E020E940B0B6AE070E080E047
:1017500090E00E94B80381E0809311020E94830907
:1017600063E571E083E892E00E948E088FE190E0EB
:101770000E9495127C016CE571E083E892E00E9482
:101780008E088EE090E00E9495128C0160E08DE062
:101790000E947C03E3E9F0E0E491D801EC93EFE7E9
:1017A000F0E0E491F0E0EE0FFF1FE859FF4F859164
:1017B0009491F801928381831386158614863B9653
:1017C000C80103961292E817F907E1F7D7011196BD
:1017D0001C930E931D961C926EE771E083E892E0D5
:1017E0000E948E08F7011686118E128E138E148EAB
:1017F00083E190E00E9495128C01D701ED91FC915C
:1018000088E292E0D80152969C938E935197169657
:10181000FC93EE93159714961C9214971C9289E0F2
:1018200011968C93119781E012968C9312971396D0
:101830008C93D70113961C930E93129713861586DB
:101840001486DF011B9633961E92AE17BF07E1F791
:10185000F8011482CC24C394BE01665F7F4FD80187
:1018600015968D919C9116970E94AB09882309F4D7
:101870005FC067E0CE010A960E9496049989891399
:10188000EBCFD8018C91811127C015968D919C9139
:1018900016970E946505BE01665F7F4FF80185813E
:1018A00096810E94380540E064EBD80115968D9131
:1018B0009C9116970E94F604F801858196810E94FA
:1018C000A304D82ED80115968D919C9116970E944D
:1018D0006505DD2009F4F2C4AE014F5F5F4FBE0124
:1018E000665F7F4FC8010E949B05F801D1808A8501
:1018F000803109F4F6C4BE01665F7F4FC8010E94C3
:1019000011068D1520F4D80111968C910BC08A8593
:10191000803111F48CE006C0BE01665F7F4FC801C4
:101920000E941106F801818384818F5F848394CFA4
:10193000F70105856701F4E0CF0ED11CD70112969F
:10194000AD90BC901397D5011596ED91FC9116972B
:10195000138615861486DF011B9633961E92AE17EA
:10196000BF07E1F710E0B601D50115968D919C9166
:1019700016970E94AB098111A4C489E0F7018487FE
:101980008EE590E0948B838B49E0B6018281938150
:101990000E943F06D7015D961C92F0924402E092AD
:1019A000430260E081E00E947C0360E08CE00E94E2
:1019B0007C0360E088E00E947C0360E082E00E949B
:1019C0007C0360E083E00E947C0360E089E00E9489
:1019D0007C0360E085E00E947C0361E084E00E947B
:1019E0007C0361E082E10E947C0361E08AE00E9466
:1019F0007C0361E086E00E947C0361E082E10E945A
:101A00007C0361E084E00E94360361E082E00E9492
:101A1000360361E083E00E94360361E081E00E94CA
:101A2000360361E089E00E94360361E085E00E94B0
:101A300036032AEA32E030930101209300018091BD
:101A400069008C7F826080936900E89A309303017B
:101A50002093020180916900837F886080936900F0
:101A6000E99A88E0E3E1F1E0DE011A9601900D9237
:101A70008A95E1F768E480E293E00E9456078E01C0
:101A8000065F1F4F7E01B2E1EB0EF11CF801619180
:101A90008F0180E293E00E9450070E151F05B1F7F9
:101AA00088E0EBE1F1E0DE01119601900D928A955C
:101AB000E1F760E580E293E00E9456078E010F5F38
:101AC0001F4F7E01F9E0EF0EF11CD8016D918D01E1
:101AD00080E293E00E9450070E151F05B1F762E007
:101AE00080E293E00E94D00862E080E293E00E94EE
:101AF00056078BE39FE10197F1F780E293E00E94A4
:101B00005907E0914302F09144028CE084878EEE05
:101B100092E0948B838BBF016C5F7F4F4CE082819E
:101B200093810E943F060E94F20360935F027093CC
:101B3000600280936102909362020E94F2036093BC
:101B4000520270935302809354029093550281E0A5
:101B50000E948102892B89F50E94F20360935F0243
:101B600070936002809361029093620200915B0225
:101B700010915C0220915D0230915E026B017C014C
:101B8000C01AD10AE20AF30A97018601083C11053E
:101B90002105310590F060935B0270935C028093A5
:101BA0005D0290935E0290915A0281E09827909393
:101BB0005A0280930B0180930A0189E00E948102FE
:101BC000892B19F481E0809359028CE00E948102F4
:101BD000019719F481E08093580288E00E94810205
:101BE000019719F481E080935702809109018823BD
:101BF000B9F180E293E00E94590760E080E00E9422
:101C00006E0966E971E080E293E00E940B0B61E0EF
:101C100080E00E946E0967EA71E080E293E00E9432
:101C20000B0B61E085E00E946E096CEA71E080E2D6
:101C300093E00E940B0B61E08BE00E946E0962EB67
:101C400071E080E293E00E940B0B1092090164ECBA
:101C500079E080E090E00E94B80381E08093560232
:101C600080915602882309F456C00E94F2036093C3
:101C70005F02709360028093610290936202009110
:101C800052021091530220915402309155026B017F
:101C90007C01C01AD10AE20AF30A40E2C41643E00A
:101CA000D406E104F104B8F1609352027093530238
:101CB00080935402909355029091040181E089270A
:101CC0008093040180E293E00E94590760E082E083
:101CD0000E946E0968EB71E080E293E00E940B0BBA
:101CE00080910401882351F061E080E00E946E0938
:101CF00065EC71E080E293E00E940B0B8091590249
:101D0000882349F060E084E00E9436031092560276
:101D100081E08093510280915102882351F180E249
:101D200093E00E94590760E080E00E946E0965ED33
:101D300071E080E293E00E940B0B60E08FE00E9474
:101D40006E0962E080E293E00E94500761E080E06B
:101D50000E946E096FED71E080E293E00E940B0B30
:101D60001092510281E08093500280934F02809341
:101D70004E0280915002882309F479C0C090080275
:101D8000D0900902E0900A02F0900B02CC0CDD1C0E
:101D9000EE1CFF1CC0924A02D0924B02E0924C0211
:101DA000F0924D028091050190910601A0910701EA
:101DB000B09108018C159D05AE05BF0509F440C022
:101DC00081E0809349020E94F20360934502709380
:101DD0004602809347029093480261E08BE00E94A4
:101DE0006E0954E6C516D104E104F1041CF06AEE54
:101DF00071E011C01C141D041E041F041CF06FEEC2
:101E000071E009C02AE0B701A60180E293E00E94D8
:101E1000C20A64EF71E080E293E00E940B0B8091B4
:101E20004A0290914B02A0914C02B0914D028093D6
:101E3000050190930601A0930701B093080117C014
:101E40000E94F20300914502109146022091470240
:101E500030914802DC01CB01801B910BA20BB30B2C
:101E6000883E9340A105B10510F0109249020091FF
:101E7000430210914402D8011E968C91882309F4E4
:101E8000A1C00E94F203F801C784D088E188F288DB
:101E9000AB01BC014C195D096E097F0983899489E6
:101EA000A0E0B0E0481759076A077B0708F40FC1A4
:101EB0007801F4E0EF0EF11CAE014F5F5F4FB70108
:101EC000D80112968D919C9113970E949B05898150
:101ED000882309F4FCC0F801818D928DA38DB48D07
:101EE000858B968BA78BB08FAE014F5F5F4FB7018D
:101EF000828193810E94FE05882369F16981F8E05F
:101F00006F9FB00111248A81282F30E0322F2227C1
:101F1000330F330F330F262B372BD80114968C91A8
:101F20008031E1F4688570E08F81FB01E81BF109E5
:101F3000CF019695982F8827979587950E94C11174
:101F400060517109207F53E0220F331F5A95E1F74A
:101F5000620F731F04C060E874EE01C0B9016138FC
:101F6000F4EE7F077CF0072E000C880B990B0E9483
:101F7000CE1320E030E040E05CE30E942D149B0192
:101F8000AC0104C020E030E04EEF52ECD80159968D
:101F90002D933D934D935C935C9755966D917D91F8
:101FA0008D919C9158970E94C713882319F081E066
:101FB000F801868F81E0D8015D968C935D971E961F
:101FC0001C9285C081E0F8018687E280F380D7010A
:101FD00012961C92129713968C936801B4E0CB0E64
:101FE000D11C8481803149F0B601C7010E941106DD
:101FF000B82E882309F460C002C02CE0B22EF7018D
:10200000858196810E946505882309F455C0B60133
:10201000D70115968D919C9116970E943805F7016E
:10202000408164E4858196810E94F604D70112966E
:102030008C91882309F440C0E7EFEB0DE33040F4C6
:10204000F0E0EE0FFF1FED5DFE4FA080B18004C0F9
:102050008EEEA82E82E0B82EC114D10439F1F7011A
:102060008381882319F18081811120C00E94F203AD
:102070002B013C014501BB0CAA08BB08AE014F5F18
:102080005F4FB601C7010E949B058981811114C071
:102090000E94F203DC01CB0188199909AA09BB0946
:1020A00084159505A605B70548F306C0B501BB0C18
:1020B000880B990B0E94B8030E94F203D8011F9667
:1020C0006D937D938D939C9352975D961C92E091B6
:1020D0004302F0914402858D882309F4BFC0868DA8
:1020E000882309F4BBC080914F02882309F4B6C04D
:1020F000C18CD28CE38CF48C60E08AE00E946E0983
:10210000A7019601C701B6010E949012882319F019
:1021100068EF71E027C046015701E894B7F82FEF48
:102120003FEF4FE75FE7C501B4010E9490128111B4
:102130000DC02FEF3FEF4FE75FE7C501B4010E94ED
:10214000C71318161CF46CEF71E00CC02FEF3FEFB3
:102150004FE75FE4C701B6010E948B1218163CF4EA
:1021600060E072E080E293E00E948E0877C02FEF7B
:102170003FEF4FE75FECC701B6010E94C71387FD31
:10218000EFCF20E030E0A901C701B6010E94C713DC
:1021900087FF0FC0E0912003F09121030190F081AF
:1021A000E02D6DE280E293E00995F7FAF094F7F8FC
:1021B000F0942AE037ED43EA5BE3C701B6010E94E1
:1021C000F0114B015C010E945C126B017C010E94CA
:1021D000CC139B01AC01C501B4010E94EF114B016E
:1021E0005C012AE0B701A60180E293E00E94C20AE6
:1021F0006AE571E080E293E00E948E0820E030E022
:1022000040E251E4C501B4010E942D144B015C0170
:102210000E945C126B01E12CF12C2AE0B701A601AF
:1022200080E293E00E94C20AC701B6010E94CC136B
:102230009B01AC01C501B4010E94EF1120E030E028
:1022400040E251E40E942D140E945C12AB0160E058
:1022500070E02AE080E293E00E94C20A80914E0280
:10226000882349F160E086E00E946E0980915A025D
:10227000882389F080910B018823E9F082E090E0C7
:102280000E94610764E072E080E293E00E940B0B21
:1022900010920B0110C080910A01882361F080E048
:1022A00090E00E9461076BED71E080E293E00E9494
:1022B0000B0B10920A010E94CF0149CCF801C08299
:1022C0000BCB101309C067E0C6010E949604F7010A
:1022D0009385891709F451CB1F5F011708F44DCB83
:1022E00042CBFCE0FD1508F40ECB14CBE3E8F2E0A2
:1022F0001382128288EE93E0A0E0B0E0848395839D
:10230000A683B7838DE291E09183808385EC90E092
:102310009587848784EC90E09787868780EC90E0AF
:10232000918B808B81EC90E0938B828B82EC90E0A0
:10233000958B848B86EC90E0978B868B118E128E1A
:10234000138E148EE0E2F3E0138212828DE391E0AB
:102350009183808386E084838FEF858387E0868303
:102360008EE087838FE0808780E1818781E18287AB
:102370001386148615861686178661E0CF010C94A5
:10238000D00897FB072E16F4009407D077FD09D0EC
:102390000E94D51107FC05D03EF4909581959F4F82
:1023A0000895709561957F4F0895AA1BBB1B51E15D
:1023B00007C0AA1FBB1FA617B70710F0A61BB70BB5
:1023C000881F991F5A95A9F780959095BC01CD015A
:1023D0000895EE0FFF1F0590F491E02D09945058D9
:1023E000BB27AA270E9407120C94B1140E94A314C1
:1023F00038F00E94AA1420F039F49F3F19F426F413
:102400000C94A0140EF4E095E7FB0C949A14E92FB9
:102410000E94C21458F3BA1762077307840795071E
:1024200020F079F4A6F50C94E4140EF4E0950B2E4C
:10243000BA2FA02D0B01B90190010C01CA01A00116
:102440001124FF27591B99F0593F50F4503E68F171
:102450001A16F040A22F232F342F4427585FF3CFB2
:10246000469537952795A795F0405395C9F77EF483
:102470001F16BA0B620B730B840BBAF09150A1F0CC
:10248000FF0FBB1F661F771F881FC2F70EC0BA0F52
:10249000621F731F841F48F4879577956795B795DA
:1024A000F7959E3F08F0B0CF9395880F08F09927D5
:1024B000EE0F9795879508950E94CA1488F09F574C
:1024C00098F0B92F9927B751B0F0E1F0660F771F58
:1024D000881F991F1AF0BA95C9F714C0B13091F04E
:1024E0000E94E414B1E008950C94E414672F782F4F
:1024F0008827B85F39F0B93FCCF386957795679513
:10250000B395D9F73EF490958095709561957F4F7E
:102510008F4F9F4F08950E94091408F48FEF08957C
:102520000E940914880B990B0895CF93DF93823092
:10253000910510F482E090E0E0913A03F0913B03C2
:1025400020E030E0C0E0D0E0309711F140815181CF
:1025500048175907C0F04817590761F482819381E1
:10256000209719F09B838A832BC090933B03809321
:102570003A0326C02115310519F04217530718F404
:102580009A01BE01DF01EF010280F381E02DDCCF73
:102590002115310509F1281B390B2430310590F440
:1025A00012968D919C9113976115710521F0FB0195
:1025B0009383828304C090933B0380933A03FD018D
:1025C000329644C0FD01E20FF31F81939193225094
:1025D00031092D933C933AC020913803309139034F
:1025E000232B41F420910F013091100130933903D6
:1025F0002093380320910D0130910E0121153105F2
:1026000041F42DB73EB74091110150911201241BA6
:10261000350BE0913803F0913903E217F307A0F48A
:102620002E1B3F0B2817390778F0AC014E5F5F4F28
:102630002417350748F04E0F5F1F5093390340931E
:1026400038038193919302C0E0E0F0E0CF01DF9185
:10265000CF9108950F931F93CF93DF93009709F4C1
:102660008CC0FC0132971382128200913A031091C0
:102670003B030115110581F420813181820F931FE5
:1026800020913803309139032817390779F5F093F1
:102690003903E093380371C0D80140E050E0AE1731
:1026A000BF0750F412962D913C911397AD0121155F
:1026B000310509F1D901F3CF9D01DA01338322837A
:1026C00060817181860F971F8217930769F4EC016F
:1026D00028813981260F371F2E5F3F4F318320839A
:1026E0008A819B8193838283452B29F4F0933B035A
:1026F000E0933A0342C01396FC93EE931297ED01D8
:10270000499159919E01240F351FE217F30771F487
:1027100080819181840F951F029611969C938E93D0
:102720008281938113969C938E931297E0E0F0E060
:10273000D80112968D919C911397009719F0F8018A
:102740008C01F6CF8D919C9198012E5F3F4F820FA7
:10275000931F20913803309139032817390769F402
:10276000309729F410923B0310923A0302C013826F
:1027700012821093390300933803DF91CF911F9198
:102780000F91089581E090E0F8940C940D150E944B
:10279000091408F481E00895E89409C097FB3EF419
:1027A00090958095709561957F4F8F4F9F4F99239E
:1027B000A9F0F92F96E9BB279395F695879577951C
:1027C0006795B795F111F8CFFAF4BB0F11F460FFDC
:1027D0001BC06F5F7F4F8F4F9F4F16C0882311F034
:1027E00096E911C0772321F09EE8872F762F05C048
:1027F000662371F096E8862F70E060E02AF09A95E3
:10280000660F771F881FDAF7880F9695879597F9D7
:102810000895990F0008550FAA0BE0E8FEEF161671
:102820001706E807F907C0F012161306E407F507C4
:1028300098F0621B730B840B950B39F40A2661F038
:10284000232B242B252B21F408950A2609F4A140DB
:10285000A6958FEF811D811D08950E9440140C9450
:10286000B1140E94A31438F00E94AA1420F09523FA
:1028700011F00C949A140C94A01411240C94E514E7
:102880000E94C21470F3959FC1F3950F50E0551F3D
:10289000629FF001729FBB27F00DB11D639FAA27B5
:1028A000F00DB11DAA1F649F6627B00DA11D661F04
:1028B000829F2227B00DA11D621F739FB00DA11D25
:1028C000621F839FA00D611D221F749F3327A00DDF
:1028D000611D231F849F600D211D822F762F6A2F7B
:1028E00011249F5750409AF0F1F088234AF0EE0FE0
:1028F000FF1FBB1F661F771F881F91505040A9F70D
:102900009E3F510580F00C949A140C94E5145F3F9F
:10291000E4F3983ED4F3869577956795B795F79548
:10292000E7959F5FC1F7FE2B880F911D96958795C0
:1029300097F9089597F99F6780E870E060E008953F
:102940009FEF80EC089500240A94161617061806C7
:102950000906089500240A941216130614060506A3
:102960000895092E0394000C11F4882352F0BB0F34
:1029700040F4BF2B11F460FF04C06F5F7F4F8F4F97
:102980009F4F089557FD9058440F551F59F05F3FD2
:1029900071F04795880F97FB991F61F09F3F79F081
:1029A00087950895121613061406551FF2CF469503
:1029B000F1DF08C0161617061806991FF1CF869585
:1029C0007105610508940895E894BB276627772769
:1029D000CB0197F90895A1E21A2EAA1BBB1BFD019A
:1029E0000DC0AA1FBB1FEE1FFF1FA217B307E407EE
:1029F000F50720F0A21BB30BE40BF50B661F771F46
:102A0000881F991F1A9469F7609570958095909525
:0E2A10009B01AC01BD01CF010895F894FFCFEA
:102A1E00270227020101000000010101FF00003C16
:102A2E00038000181C1E1F1E1C1800081408030427
:102A3E000403005E00BC007701000000006601A3E5
:102A4E00082F010D012101AD01000000005007A368
:102A5E0008564D4450565F317C315F564D445056AA
:102A6E000D0A0073657475702E2E2E004275696CFA
:102A7E0064696E6720746865726D6F6D65747265DA
:102A8E00207769746820706172616D730A00496EF7
:102A9E00697469616C697A6520746865726D6F6DB1
:102AAE00657472650A004C6173657220436F6E74B3
:102ABE00726F6C6C6572005665722E004220302E5D
:102ACE00310031302F313600444320706F776572FC
:102ADE00206F6666007761697420666F72206B6581
:102AEE0079206F6E004C61736572206F66660049C7
:102AFE006E74656E7369747920006D617820006D57
:102B0E00696E2000202520006E616E00696E6600E1
:082B1E006F7666006F6E200067
:00000001FF
