:100000000C94E3000C946F040C9448040C940B01C2
:100010000C940B010C940B010C940B010C942F0A03
:100020000C940B010C940B010C940B010C940B0120
:100030000C940B010C940B010C940B010C940B0110
:100040000C94FE030C940B010C944F020C942902A7
:100050000C940B010C940B010C940B010C940B01F0
:100060000C940B010C940B01005EBCE2613FDD833C
:10007000C29C7E20A3FD1F419DC3217FFCA2401E88
:100080005F01E3BD3E6082DC237D9FC1421CFEA078
:10009000E1BF5D0380DE3C62BEE0025CDF81633D68
:1000A0007C22C09E1D43A1FF4618FAA427799BC558
:1000B00084DA3866E5BB5907DB856739BAE4065848
:1000C0001947A5FB7826C49A653BD987045AB8E638
:1000D000A7F91B45C6987A24F8A6441A99C7257B28
:1000E0003A6486D85B05E7B98CD2306EEDB3510F18
:1000F0004E10F2AC2F7193CD114FADF3702ECC9208
:10010000D38D6F31B2EC0E50AFF1134DCE90722CF7
:100110006D33D18F0C52B0EE326C8ED0530DEFB1E7
:10012000F0AE4C1291CF2D73CA947628ABF51749D7
:100130000856B4EA6937D58B5709EBB536688AD4C7
:1001400095CB2977F4AA4816E9B7550B88D6346AB7
:100150002B7597C94A14F6A8742AC896154BA9F7A7
:10016000B6E80A54D7896B35000000002400270048
:100170002A0000000000250028002B0000000008D5
:10018000000201000003040700000000000000005E
:1001900002000000002300260029000404040404D7
:1001A0000404040202020202020303030303030124
:1001B00002040810204080010204081020010204FB
:1001C00008102000AC1011241FBECFEFD8E0DEBF16
:1001D000CDBF11E0A0E0B1E0E2EFF6E202C0059091
:1001E0000D92AE3CB107D9F723E0AEECB1E001C00F
:1001F0001D92A932B207E1F710E0C3EED0E004C0CF
:100200002197FE010E948011C23ED107C9F70E94CA
:100210003F0B0C9477130C94000083E592E00E944E
:10022000390121E0892B09F420E0822F0895FC0197
:10023000918D828D981761F0828DDF01A80FB11D1D
:100240005D968C91928D9F5F9F73928F90E0089541
:100250008FEF9FEF0895FC01918D828D981731F0FB
:10026000828DE80FF11D858D90E008958FEF9FEF4F
:100270000895FC01918D228D892F90E0805C9F4F25
:10028000821B91098F7399270895FC01848DDF01EA
:10029000A80FB11DA35ABF4F2C91848D90E00196F9
:1002A0008F739927848FA689B7892C93A089B189E8
:1002B0008C9180648C93938D848D981306C00288F2
:1002C000F389E02D80818F7D80830895EF92FF92E6
:1002D0000F931F93CF93DF93EC0181E0888F9B8D69
:1002E0008C8D981305C0E889F989808185FD24C02B
:1002F000F62E0B8D10E00F5F1F4F0F731127E02EAE
:100300008C8DE8120CC00FB607FCFACFE889F9898A
:10031000808185FFF5CFCE010E944501F1CF8B8D05
:10032000FE01E80FF11DE35AFF4FF0820B8FEA89BF
:10033000FB898081806207C0EE89FF896083E8893C
:10034000F98980818064808381E090E0DF91CF91A2
:100350001F910F91FF90EF900895CF93DF93EC01E1
:10036000888D8823C9F0EA89FB89808185FD05C0D5
:10037000A889B9898C9186FD0FC00FB607FCF5CF0F
:10038000808185FFF2CFA889B9898C9185FFEDCF57
:10039000CE010E944501E7CFDF91CF91089580E023
:1003A00090E0892B29F00E940D0181110C9400002E
:1003B0000895833081F028F4813099F08230A1F0E3
:1003C00008958730A9F08830B9F08430D1F4809155
:1003D00080008F7D03C0809180008F7780938000A4
:1003E000089584B58F7702C084B58F7D84BD08954C
:1003F0008091B0008F7703C08091B0008F7D809393
:10040000B00008953FB7F894809148029091490256
:10041000A0914A02B0914B0226B5A89B05C02F3F80
:1004200019F00196A11DB11D3FBFBA2FA92F982F1A
:100430008827820F911DA11DB11DBC01CD0142E095
:10044000660F771F881F991F4A95D1F70895089561
:1004500008951F920F920FB60F9211242F933F937E
:100460004F935F936F937F938F939F93AF93BF93BC
:10047000EF93FF9383E592E00E944501FF91EF9196
:10048000BF91AF919F918F917F916F915F914F91AC
:100490003F912F910F900FBE0F901F9018951F92B4
:1004A0000F920FB60F9211242F938F939F93EF9378
:1004B000FF93E0916302F09164028081E091690210
:1004C000F0916A0282FD12C0908180916C028F5F70
:1004D0008F7320916D02821751F0E0916C02F0E071
:1004E000ED5AFD4F958F80936C0201C08081FF9182
:1004F000EF919F918F912F910F900FBE0F901F90B2
:100500001895CF93DF93282F30E0F901E458FE4F80
:100510008491F901E155FE4FD491F901E556FE4F62
:10052000C491CC2391F081110E94D901EC2FF0E00D
:10053000EE0FFF1FEF56FE4FA591B491EC91ED2306
:1005400081E090E021F480E002C080E090E0DF9163
:10055000CF910895CF93DF9382E00E948102EC0156
:1005600083E00E948102CC0FDD1F8C2B9D2B2091FC
:10057000330230913402220F331F220F331F282BF6
:10058000392B2D30310549F02430310531F022303E
:10059000310519F02B303105A1F44091CE01509175
:1005A000CF016091D0017091D1014F5F5F4F6F4FCC
:1005B0007F4F4093CE015093CF016093D001709351
:1005C000D1012E30310549F0A9014750510942307F
:1005D000510518F021303105A1F44091CE01509120
:1005E000CF016091D0017091D10141505109610951
:1005F00071094093CE015093CF016093D001709365
:10060000D10190933402809333028091CE01909176
:10061000CF01A091D001B091D101C297A105B10540
:100620006CF082E390E0A0E0B0E08093CE01909384
:10063000CF01A093D001B093D10115C08091CE011C
:100640009091CF01A091D001B091D1011816190657
:100650001A061B0644F01092CE011092CF011092A0
:10066000D0011092D101DF91CF9108951F93CF93C4
:10067000DF93282F30E0F901E458FE4F8491F9010F
:10068000E155FE4FD491F901E556FE4FC491CC23BC
:10069000C9F0162F81110E94D901EC2FF0E0EE0F66
:1006A000FF1FEE58FE4FA591B4918FB7F89411112A
:1006B00005C09C91ED2FE095E92302C0EC91ED2B54
:1006C000EC938FBFDF91CF911F910895CF93DF936C
:1006D000EC0160E08E810E94360361E08E810E9411
:1006E000360360E08E810E9436038BE891E001972B
:1006F000F1F7DF91CF910895CF93DF9390E0FC0164
:10070000E155FE4F2491FC01E556FE4F849188236C
:1007100061F190E0880F991FFC01E859FE4FC591E7
:10072000D491FC01EE58FE4FA591B491611109C01E
:100730009FB7F8948881209582238883EC912E239B
:100740000BC0623061F49FB7F8943881822F809596
:1007500083238883EC912E2B2C939FBF06C08FB7E9
:10076000F894E8812E2B28838FBFDF91CF910895D5
:100770008F929F92AF92BF92CF92DF92EF92FF92B1
:100780006B017C010E9402024B015C01C114D10487
:10079000E104F104F1F00E940202DC01CB018819AE
:1007A0009909AA09BB09883E9340A105B10570F3D8
:1007B00021E0C21AD108E108F10888EE880E83E032
:1007C000981EA11CB11CC114D104E104F10419F755
:1007D000DDCFFF90EF90DF90CF90BF90AF909F90D4
:1007E0008F9008952FB7F89460914402709145025C
:1007F00080914602909147022FBF08951F920F9259
:100800000FB60F9211242F933F938F939F93AF9323
:10081000BF938091440290914502A0914602B0910D
:1008200047023091430223E0230F2D3720F4019635
:10083000A11DB11D05C026E8230F0296A11DB11D03
:10084000209343028093440290934502A093460272
:10085000B09347028091480290914902A0914A02C8
:10086000B0914B020196A11DB11D80934802909357
:100870004902A0934A02B0934B02BF91AF919F915E
:100880008F913F912F910F900FBE0F901F90189551
:100890001F920F920FB60F9211242F933F934F93F5
:1008A0005F936F937F938F939F93AF93BF93EF93D8
:1008B000FF93E0910201F09103010995FF91EF91FF
:1008C000BF91AF919F918F917F916F915F914F9168
:1008D0003F912F910F900FBE0F901F9018951F9270
:1008E0000F920FB60F9211242F933F934F935F9364
:1008F0006F937F938F939F93AF93BF93EF93FF93E8
:10090000E0910001F09101010995FF91EF91BF91F4
:10091000AF919F918F917F916F915F914F913F9197
:100920002F910F900FBE0F901F901895DC01E0E003
:10093000615038F08D91E827F0E0E859FF4FE491DD
:10094000F7CF8E2F0895FC0190810180F281E02D78
:10095000F8948181892B81832281892F8095282396
:100960002283A7E0B0E01197F1F7218182238183F0
:10097000A3E2B0E01197F1F780817894EFECF0E01A
:100980003197F1F7982381E009F480E00895FC01A4
:1009900090810180F281E02D892F809560FF12C047
:1009A000F8942281822382838181892B8183A3E22F
:1009B000B0E01197F1F78281982B9283789487EDBC
:1009C00090E011C0F8942281822382838181892B57
:1009D0008183AFEFB0E01197F1F78281982B92837A
:1009E00078948FE090E00197F1F70895CF92DF922D
:1009F000EF92FF920F931F93CF93DF931F92CDB788
:100A0000DEB76C01E62E08E010E0FF24F39461E00D
:100A10008F2D8E2109F460E0C60149830E94C7042E
:100A2000FF0C0150110949810115110581F7411190
:100A300015C0F894D6011196ED91FC911297918111
:100A40008C918095892381831196ED91FC91129769
:100A500092818C9180958923828378940F90DF9185
:100A6000CF911F910F91FF90EF90DF90CF9008955D
:100A7000CF92DF92EF92FF920F931F93CF93DF936A
:100A80001F92CDB7DEB78C01F62E40E065E5798385
:100A90000E94F604CF2C7981D72E760188E0E80EEB
:100AA000F11CF60161916F0140E0C8010E94F6045B
:100AB000CE14DF04B1F70F90DF91CF911F910F910A
:100AC000FF90EF90DF90CF900895FC01908101801E
:100AD000F281E02DF8948181292F20958223818352
:100AE00078948DE743E050E0815021F1DA011197CD
:100AF000F1F730813923C1F3F89482818223828314
:100B00008181892B81837894ABE7B7E01197F1F766
:100B1000F894818128232183A3E1B1E01197F1F7B3
:100B20008081982381E009F080E07894E3E6F6E0A4
:100B30003197F1F70895CF92DF92EF92FF920F93E2
:100B40001F93CF93DF937C016C0187E0C80ED11C0B
:100B5000C0E0D0E0062F10E0B8010C2E02C0759561
:100B600067950A94E2F76170F60181916F010E9426
:100B700036032196C430D10579F7C701DF91CF91B3
:100B80001F910F91FF90EF90DF90CF900C94660330
:100B9000CF92DF92EF92FF920F931F93CF93DF9349
:100BA000EC01F62E642F8C810E9436038D818F3FDD
:100BB00019F060E00E9436038F850F2D10E084FF4E
:100BC00025C06E0187E0C80ED11CE12CF12CB801C4
:100BD0000E2C02C0759567950A94E2F76170F601D4
:100BE00081916F010E943603FFEFEF1AFF0A88E040
:100BF000E816F10461F7CE01DF91CF911F910F91BB
:100C0000FF90EF90DF90CF900C946603B80184E0E2
:100C1000759567958A95E1F7CE010E949B056F2D2A
:100C2000CE01DF91CF911F910F91FF90EF90DF9058
:100C3000CF900C949B0541E00E94C80581E090E0B4
:100C4000089540E00C94C80561E00E9421068BE302
:100C50009FE10197F1F708953F924F925F926F9253
:100C60007F928F929F92AF92BF92CF92DF92EF923C
:100C7000FF920F931F93CF93DF9300D01F92CDB7B6
:100C8000DEB75C0120E030E057E6352E44244A947C
:100C9000542C320179E0872E7AE1972EE0E9CE2EAE
:100CA000E1E0DE2E0DEA11E0F1ECEF2EF1E0FF2E97
:100CB000A216B3060CF4E8C080910C01823119F43D
:100CC000F601949172C08F3F09F0ADC082E180932C
:100CD0000C01F60194919F3F09F4A5C0913009F1F0
:100CE000923009F440C0911160C014BC15BC84B5A9
:100CF000826084BD85B5816085BDF8018491E82F4F
:100D0000F0E0EE0FFF1FEE58FE4F85919491909307
:100D10003A0280933902F70184918093380290E07F
:100D200046C01092800010928100809181008860FE
:100D30008093810080918100816080938100F8011F
:100D40008491E82FF0E0EE0FFF1FEE58FE4F8591E3
:100D500094919093370280933602F70184918093A7
:100D6000350291E024C01092B0001092B100809141
:100D7000B00082608093B0008091B1008160809368
:100D8000B100F8018491E82FF0E0EE0FFF1FEE585C
:100D9000FE4F8591949190934D0280934C02F70100
:100DA000849180934E0292E002C097FD3CC061E0C6
:100DB00082E12A833B8399830E947C0399812A8163
:100DC0003B81992309F44DC0923009F442C091301F
:100DD000C1F480918100887F81608093810090922E
:100DE00089008092880040923B0250923C026092BF
:100DF0003D0270923E0280916F00826080936F008E
:100E000012C0923081F489E08093B30040924F0287
:100E10005092500260925102709252028091700082
:100E200082608093700068EC70E080E090E02A833C
:100E30003B830E94B80382E10E94040A64E670E0EA
:100E400080E090E00E94B8032A813B812F5F3F4FF2
:100E50002FCF8091B100887F83608093B1008FECA9
:100E6000D3CF85B5887F836085BD37BC40923F0274
:100E700050924002609241027092420280916E0054
:100E8000826080936E00CFCF0F900F900F90DF9114
:100E9000CF911F910F91FF90EF90DF90CF90BF9077
:100EA000AF909F908F907F906F905F904F903F900A
:100EB00008950E942C12EF92FF920F931F93CF93ED
:100EC000DF93EC01623018F08F8588608F876B8B21
:100ED0001C8A80E48D8B80E18E8B80E58F8B61E0B6
:100EE0008C810E947C038D818F3F19F061E00E940C
:100EF0007C0361E08E810E947C037E0187E0E80E26
:100F0000F11C00E010E08F8584FD03C084E090E0D8
:100F100002C088E090E0081719074CF461E0F7017F
:100F200081917F010E947C030F5F1F4FECCF8BE309
:100F30009DE00197F1F760E08C810E94360360E04C
:100F40008E810E9436038D818F3F19F060E00E94F0
:100F500036036F8564FD1DC063E0CE010E949B05D2
:100F60000BE416E4C8010197F1F763E0CE010E949B
:100F70009B05C8010197F1F763E0CE010E949B0534
:100F800083E592E00197F1F762E0CE010E949B05B4
:100F900016C06062CE010E9421068BE496E40197A0
:100FA000F1F76F856062CE010E94210683E592E031
:100FB0000197F1F76F856062CE010E9421066F856F
:100FC0006062CE010E94210684E0888B6CE0CE0135
:100FD0000E942106CE010E94240682E0898B66E0F1
:100FE000CE01DF91CF911F910F91FF90EF900C9464
:100FF0002106643008F063E090910303691710F054
:101000006FEF690FE62FF0E0E051FD4F9489682FF4
:10101000690F606880EF92E00C942106E3E5F2E04E
:10102000A089B18982E08C93A485B5851C92A685A0
:10103000B7858FEC8C93108EA489B58986E08C934C
:10104000A289B3898C9180618C93A289B3898C9198
:1010500088608C93A289B3898C9180688C93028874
:10106000F389E02D80818F7D80830895AF92BF92B8
:10107000CF92DF92EF92FF920F931F93CF93DF9364
:101080008B01BC0180910D0390910E030E943805E5
:1010900040E06EEB80910D0390910E030E94F604E8
:1010A000E801680189E0C80ED11CA0900D03B09042
:1010B0000E0388E0E82EF12C01E010E0C5010E944B
:1010C000A3048111102B000F81E0E81AF108B1F799
:1010D0001993CC15DD0549F780910D0390910E030E
:1010E0000E94650591E0813009F090E0892FDF9141
:1010F000CF911F910F91FF90EF90DF90CF90BF9015
:10110000AF9008950F931F93CF93DF938C01EB0162
:1011100080910D0390910E030E946505882369F06C
:10112000BE01C8010E943608882339F068E0CE016C
:101130000E94960491E02885821390E0892FDF9128
:10114000CF911F910F910895AF92BF92CF92DF92EE
:10115000EF92FF920F931F93CF93DF931F92CDB720
:10116000DEB75C01D62EE72EFC018585811105C016
:10117000C5010E946505811106C0F501138615861B
:10118000148680E065C040E060EFC5010E94F6046F
:1011900001E0F12CC12C11E0C5010E94A304682FCD
:1011A000C50169830E94A3046981613019F481300B
:1011B000B9F433C04F2D50E068131BC0F50183858F
:1011C000181730F4E40FF51F8381802349F402C01F
:1011D000181731F060E0193058F4F501148708C091
:1011E000F501EF0DF11D8381802B838361E009C040
:1011F000C12EF501E40FF51F9381802F809589237F
:101200008383C5010E94C7041F5F000F11F4F3948C
:1012100001E0F7E0FF1508F0BFCF113408F4ADCFBF
:10122000F501C386C11002C081E08587F501838185
:10123000882309F4A2CFD5011396ED2DFE2D95013B
:10124000255F3F4F8D918193A217B307D9F781E0B6
:101250000F90DF91CF911F910F91FF90EF90DF9052
:10126000CF90BF90AF9008950F931F93CF93DF93CC
:101270008C01D62FE0910D03F0910E031386158695
:101280001486DF011B9633961E92AE17BF07E1F757
:10129000C0E0B80180910D0390910E030E94A40854
:1012A000811102C080E010C0CD130AC067E0C80100
:1012B0000E949604F8019781891302C081E004C05E
:1012C000CF5FDC1778F3E5CFDF91CF911F910F91BE
:1012D00008950F931F93CF93DF93EC018B018091BF
:1012E0000D0390910E030E946505BE0180910D03D0
:1012F00090910E030E94380540E06EE480910D034A
:1013000090910E030E94F60440E0F8016281809102
:101310000D0390910E030E94F60440E0F8016381F2
:1013200080910D0390910E030E94F6048881803114
:1013300049F040E0F801648180910D0390910E0323
:101340000E94F60480910D0390910E030E946505A2
:10135000BE0180910D0390910E030E9438054091CB
:10136000080368E480910D0390910E030E94F60437
:1013700064E170E080E090E00E94B803809108038F
:10138000882331F06AE070E080E090E00E94B803CA
:1013900080910D0390910E03DF91CF911F910F91DA
:1013A0000C946505CF93DF93CDB7DEB729970FB6C1
:1013B000F894DEBF0FBECDBFFC0120812031D1F0FB
:1013C000BE016F5F7F4F0E948208882389F08D8164
:1013D0008F3361F020F48F3159F489E00CC08F35E0
:1013E00019F08F3739F004C08BE005C08AE003C0E4
:1013F00080E001C08CE029960FB6F894DEBF0FBEE6
:10140000CDBFDF91CF91089590910C01981324C026
:10141000E0E9F1E0E4919FEF90930C01E130B9F045
:1014200098F0E230C9F4909170009D7F9093700025
:1014300091E09093B0009091B100987F9460909368
:10144000B1001092B30008C010926E0005C09091D8
:101450006F009D7F90936F0060E00C9436031F92A5
:101460000F920FB60F9211242F933F934F935F93D8
:101470006F937F938F939F93AF93BF93EF93FF935C
:1014800080914F0290915002A0915102B09152026E
:10149000892B8A2B8B2B51F180914E02E0914C02CB
:1014A000F0914D0290818927808380914F02909125
:1014B0005002A0915102B0915202181619061A0654
:1014C0001B06C4F480914F0290915002A0915102EA
:1014D000B09152020197A109B10980934F029093F4
:1014E0005002A0935102B093520204C080910C01AB
:1014F0000E94040AFF91EF91BF91AF919F918F914C
:101500007F916F915F914F913F912F910F900FBEFF
:101510000F901F901895CF92DF92EF92FF920F934A
:101520001F93CF93DF93EC016A017B01E881F9817E
:101530000190F081E02D6DE209958C01442755273B
:10154000BA014C195D096E097F092AE0CE010E949B
:10155000F40A800F911FDF91CF911F910F91FF909F
:10156000EF90DF90CF900895CF92DF92EF92FF92AD
:101570000F931F93CF93DF936C017A018B01C0E02F
:10158000D0E0CE15DF0589F0D8016D918D01D6012F
:10159000ED91FC910190F081E02DC6010995892B18
:1015A00011F47E0102C02196ECCFC701DF91CF91EB
:1015B0001F910F91FF90EF90DF90CF9008956115EC
:1015C000710579F0FB0101900020E9F73197AF0137
:1015D000461B570BDC01ED91FC910280F381E02D5D
:1015E000099480E090E008954F925F926F927F920D
:1015F000EF92FF920F931F93CF93DF93CDB7DEB798
:10160000A1970FB6F894DEBF0FBECDBF7C01FA01E3
:10161000CB0119A2223008F42AE08E010F5D1F4F82
:10162000422E512C612C712CBF01A30192010E940A
:101630005513F901CA01015011096A3014F4605DB3
:1016400001C0695CD8016C93232B242B252B61F7F7
:10165000B801C7010E94DF0AA1960FB6F894DEBF59
:101660000FBECDBFDF91CF911F910F91FF90EF90F3
:101670007F906F905F904F9008950C94DF0ACF9306
:10168000DF93CDB7DEB7A1970FB6F894DEBF0FBEDC
:10169000CDBF789484B5826084BD84B5816084BDFB
:1016A00085B5826085BD85B5816085BD80916E0000
:1016B000816080936E001092810080918100826031
:1016C000809381008091810081608093810080916E
:1016D00080008160809380008091B100846080935D
:1016E000B1008091B00081608093B00080917A0059
:1016F000846080937A0080917A00826080937A007F
:1017000080917A00816080937A0080917A0080686D
:1017100080937A001092C100109205021092060286
:1017200010920702109208021092D3011092D40175
:101730001092D5011092D60160ED77E080E090E044
:101740000E94B80383E592E0909304028093030221
:101750000E940E080E94F2030091D3011091D4015F
:101760002091D5013091D601DC01CB01801B910B7A
:10177000A20BB30BC297A105B10538F463E070E08A
:1017800080E090E00E94B803E5CF0E94F2036093EE
:10179000D3017093D4018093D5019093D6016BE36C
:1017A00071E080910302909104020E943D0B6AE077
:1017B00070E080E090E00E94B80381E08093D70160
:1017C00060E00E947C0360E08CE00E947C0360E0AB
:1017D00088E00E947C0360E082E00E947C0360E07D
:1017E00083E00E947C0360E089E00E947C0360E06B
:1017F00085E00E947C0361E084E00E947C0361E05C
:1018000082E10E947C0361E08AE00E947C0361E047
:1018100086E00E947C0361E082E10E947C0361E03B
:1018200084E00E94360361E082E00E94360361E0BA
:1018300083E00E94360361E081E00E94360361E0AC
:1018400089E00E94360361E085E00E9436032AEABF
:1018500032E03093010120930001809169008C7F78
:10186000826080936900E89A30930301209302011B
:1018700080916900837F886080936900E99A88E09D
:10188000EDE0F1E0DE015A9601900D928A95E1F7C4
:1018900068E480EF92E00E9421065E012AE1A20E38
:1018A000B11C8E010E5D1F4F4501F50161915F0175
:1018B00080EF92E00E941B06A016B106B1F788E007
:1018C000E5E1F1E0DE01529601900D928A95E1F793
:1018D00060E580EF92E00E9421065E01F2E1AF0E2A
:1018E000B11CF50161915F0180EF92E00E941B063F
:1018F000A814B904B1F762E080EF92E00E945B07A0
:10190000E0910D03F0910E03138615861486DF0116
:101910001B9633961E92AE17BF07E1F710920C0389
:1019200011E0BE01665F7F4F80910D0390910E0321
:101930000E94A408882309F459C067E0CE010A96E2
:101940000E94960499898913ECCF80910803811134
:1019500027C080910D0390910E030E946505BE0182
:10196000665F7F4F80910D0390910E030E943805B2
:1019700040E064EB80910D0390910E030E94F60409
:1019800080910D0390910E030E94A304082F809173
:101990000D0390910E030E946505002309F4D9C33D
:1019A00080910D0390910E030E946505882339F004
:1019B000BE016F5F7F4FCE010A960E9436080091EC
:1019C0000903CE010A960E94D209801718F480916B
:1019D000090304C0CE010A960E94D209809309032C
:1019E00080910C038F5F80930C039BCF60E08DE0B0
:1019F00092E00E943409BE016F5F7F4F8DE092E05C
:101A00000E948208882349F08BE18B83BE016F5FBF
:101A10007F4F8DE092E00E9469098AE0809309037C
:101A2000A12CB12C0FE51FE7912E8FE1882E9FE3AB
:101A3000792E80910C0390E0A816B9065CF56A2D0A
:101A4000CE010A960E94340910910903BE016F5F0E
:101A50007F4FCE010A960E9482088823B9F08A85BA
:101A60008031A1F01B3041F01C3021F01A3031F4EC
:101A70007D8205C09D8203C00D8301C08D82BE01A1
:101A80006F5F7F4FCE010A960E946909FFEFAF1A80
:101A9000BF0ACFCF62E080EF92E00E9421068BE385
:101AA0009FE10197F1F780EF92E00E9424060E94E7
:101AB000F20360932F02709330028093310290936F
:101AC00032020E94F20360932202709323028093F9
:101AD0002402909325020E940E08BE016F5F7F4F83
:101AE0008DE092E00E948208882311F01B8101C0E2
:101AF00011E86DE471E083E592E00E943D0B412F17
:101B0000110F550B660B770B77FF05C083E592E04D
:101B10000E948B0A05C02AE083E592E00E94F40A45
:101B20006AE571E083E592E00E943D0B8DE092E072
:101B30008230910510F010E001C0182F81E00E9462
:101B40008102892B91F50E94F20360932F0270931A
:101B50003002809331029093320280902B02909059
:101B60002C02A0902D02B0902E029B01AC012819EE
:101B700039094A095B0949015A0138EC8316910475
:101B8000A104B10490F060932B0270932C02809317
:101B90002D0290932E0290912A0281E09827909333
:101BA0002A0280930B0180930A0189E00E9481023E
:101BB000892B19F481E0809329028CE00E94810234
:101BC000019719F481E08093280288E00E94810245
:101BD000019719F481E080932702809109018823FD
:101BE000B9F180EF92E00E94240660E080E00E945C
:101BF000F9076CE571E080EF92E00E943D0B61E037
:101C000080E00E94F9076DE671E080EF92E00E94AB
:101C10003D0B61E085E00E94F90762E771E080EF2B
:101C200092E00E943D0B61E08BE00E94F90768E7BB
:101C300071E080EF92E00E943D0B1092090164EC8C
:101C400079E080E090E00E94B80381E08093260272
:101C500080912602882309F458C00E94F203609301
:101C60002F02709330028093310290933202809061
:101C7000220290902302A0902402B09025029B01A2
:101C8000AC01281939094A095B0949015A0130E2B6
:101C9000831633E09306A104B104B8F160932202E5
:101CA0007093230280932402909325029091040163
:101CB00081E089278093040180EF92E00E9424064E
:101CC00060E082E00E94F9076EE771E080EF92E049
:101CD0000E943D0B80910401882351F061E080E077
:101CE0000E94F9076BE871E080EF92E00E943D0BE3
:101CF00080912902882349F060E084E00E94360345
:101D00001092260281E08093210280912102882393
:101D100051F180EF92E00E94240660E080E00E9492
:101D2000F9076BE971E080EF92E00E943D0B60E003
:101D30008FE00E94F90762E080EF92E00E941B06AC
:101D400061E080E00E94F90765EA71E080EF92E0CF
:101D50000E943D0B1092210281E08093200280932B
:101D60001F0280931E0280912002882309F479C00B
:101D70008090CE019090CF01A090D001B090D10181
:101D8000880C991CAA1CBB1C80921A0290921B0200
:101D9000A0921C02B0921D02809105019091060153
:101DA000A0910701B091080188159905AA05BB0506
:101DB00009F440C081E0809319020E94F20360930D
:101DC000150270931602809317029093180261E037
:101DD0008BE00E94F90744E684169104A104B10443
:101DE0001CF060EB71E011C0181419041A041B04F4
:101DF0001CF065EB71E009C02AE0B501A40180EF99
:101E000092E00E94F40A6AEB71E080EF92E00E9497
:101E10003D0B80911A0290911B02A0911C02B0917F
:101E20001D028093050190930601A0930701B093D2
:101E3000080117C00E94F2038090150290901602CC
:101E4000A0901702B0901802DC01CB018819990903
:101E5000AA09BB09883E9340A105B10510F0109274
:101E6000190280911F02882309F443C1809119024D
:101E700081113FC10E94F2038090090290900A02F2
:101E8000A0900B02B0900C029B01AC0128193909FB
:101E90004A095B0949015A0130EB831634E0930685
:101EA000A104B10408F491C06093090270930A027E
:101EB00080930B0290930C0280910D0390910E037E
:101EC0000E94650540E06CEC80910D0390910E033B
:101ED0000E94F6044091080364E480910D03909100
:101EE0000E030E94F60480910A038823A9F0E09172
:101EF0000903E950E33040F4F0E0EE0FFF1FE35E2A
:101F0000FE4F6081718102C06EEE72E0072E000C00
:101F1000880B990B0E94B803612FCE010A960E948C
:101F20003409811107C0C12CD12CFEEFEF2EF2EC49
:101F3000FF2E4BC0BE016F5F7F4FCE010A960E94FD
:101F40008208882359F1698148E0649FB001112417
:101F50008A81282F30E0322F2227330F330F330F9F
:101F6000262B372B8A858031E1F4688570E08F81DC
:101F7000FB01E81BF109CF019695982F88279795CB
:101F800087950E94581160517109207F53E0220FFC
:101F9000331F5A95E1F7620F731F04C060E874EEB7
:101FA00001C0B9016138F4EE7F070CF4BCCF072EF5
:101FB000000C880B990B0E94381220E030E040E0C2
:101FC0005CE30E9497126B017C0160E08BE00E9451
:101FD000F907A7019601C701B6010E9427128823BD
:101FE00019F06EEB71E01AC046015701E894B7F89A
:101FF0002FEF3FEF4FE75FE7C501B4010E942712C3
:10200000811111C02FEF3FEF4FE75FE7C501B4012A
:102010000E94311218163CF462EC71E080EF92E0FD
:102020000E94DF0A66C02FEF3FEF4FE75FE4C70172
:10203000B6010E942212181654F02FEF3FEF4FE71F
:102040005FECC701B6010E94311287FF03C066EC46
:1020500071E0E4CF20E030E0A901C701B6010E94A1
:10206000311287FF0FC0E091F002F091F102019070
:10207000F081E02D6DE280EF92E00995C701B60195
:10208000905802C0C701B6012DEC3CEC4CE45DE376
:102090000E9487112B013C010E94F3114B015C014E
:1020A0000E9436129B01AC01C301B2010E9486114D
:1020B0002B013C012AE0B501A40180EF92E00E94CF
:1020C000F40A60E771E080EF92E00E94DF0A20E00E
:1020D00030E040E251E4C301B2010E9497120E9435
:1020E000F311AB0160E070E02AE080EF92E00E9423
:1020F000F40A80911E02882349F160E086E00E9484
:10210000F90780912A02882389F080910B018823A6
:10211000E9F082E090E00E942C066AEC71E080EF2A
:1021200092E00E943D0B10920B0110C080910A01B9
:10213000882361F080E090E00E942C0661EA71E063
:1021400080EF92E00E943D0B10920A010E94CF01A5
:10215000F5CC1093080324CC10925602109255022D
:1021600088EE93E0A0E0B0E080935702909358028D
:10217000A0935902B0935A0287E291E090935402DF
:102180008093530285EC90E09093600280935F020D
:1021900084EC90E0909362028093610280EC90E086
:1021A000909364028093630281EC90E090936602C6
:1021B0008093650282EC90E09093680280936702BE
:1021C00086EC90E090936A028093690210926C0210
:1021D00010926D0210926E0210926F0260E08DE01C
:1021E0000E947C03ECEBF1E0E491E0931B03E8EA4E
:1021F000F1E0E491F0E0EE0FFF1FEF56FE4F859106
:10220000949190931D0380931C03109226031092C7
:10221000280310922703E6E2F3E0129283E0EE3106
:10222000F807D9F788E292E090931A038093190394
:102230008BE193E090930E0380930D0310920C03B7
:102240001092080389E08093090381E080930A03D8
:1022500080930B031092F3021092F20287E391E055
:102260009093F1028093F00286E08093F4028FEF66
:102270008093F50287E08093F6028EE08093F70268
:102280008FE08093F80280E18093F90281E18093EE
:10229000FA021092FB021092FC021092FD021092C0
:1022A000FE021092FF0261E080EF92E00C945B0767
:1022B00097FB072E16F4009407D077FD09D00E94F3
:1022C0006C1107FC05D03EF4909581959F4F0895C1
:1022D000709561957F4F0895AA1BBB1B51E107C004
:1022E000AA1FBB1FA617B70710F0A61BB70B881FA6
:1022F000991F5A95A9F780959095BC01CD01089535
:10230000EE0FFF1F0590F491E02D09945058BB2764
:10231000AA270E949E110C941B130E940D1338F0E3
:102320000E94141320F039F49F3F19F426F40C9402
:102330000A130EF4E095E7FB0C940413E92F0E94B6
:102340002C1358F3BA17620773078407950720F018
:1023500079F4A6F50C944E130EF4E0950B2EBA2FDB
:10236000A02D0B01B90190010C01CA01A00111249B
:10237000FF27591B99F0593F50F4503E68F11A1647
:10238000F040A22F232F342F4427585FF3CF4695D8
:1023900037952795A795F0405395C9F77EF41F16FA
:1023A000BA0B620B730B840BBAF09150A1F0FF0FC4
:1023B000BB1F661F771F881FC2F70EC0BA0F621FB0
:1023C000731F841F48F4879577956795B795F795A0
:1023D0009E3F08F0B0CF9395880F08F09927EE0F35
:1023E0009795879508950E94341388F09F5798F029
:1023F000B92F9927B751B0F0E1F0660F771F881F0A
:10240000991F1AF0BA95C9F714C0B13091F00E9423
:102410004E13B1E008950C944E13672F782F882740
:10242000B85F39F0B93FCCF3869577956795B3954A
:10243000D9F73EF490958095709561957F4F8F4FB9
:102440009F4F08950E94731208F48FEF08950E9421
:102450007312880B990B089581E090E0F8940C9426
:1024600077130E94731208F481E00895E89409C07C
:1024700097FB3EF490958095709561957F4F8F4FB7
:102480009F4F9923A9F0F92F96E9BB279395F695CD
:10249000879577956795B795F111F8CFFAF4BB0F4B
:1024A00011F460FF1BC06F5F7F4F8F4F9F4F16C0AF
:1024B000882311F096E911C0772321F09EE8872F39
:1024C000762F05C0662371F096E8862F70E060E0F5
:1024D0002AF09A95660F771F881FDAF7880F96956E
:1024E000879597F90895990F0008550FAA0BE0E812
:1024F000FEEF16161706E807F907C0F012161306C6
:10250000E407F50798F0621B730B840B950B39F405
:102510000A2661F0232B242B252B21F408950A266B
:1025200009F4A140A6958FEF811D811D08950E9499
:10253000AA120C941B130E940D1338F00E9414135E
:1025400020F0952311F00C9404130C940A13112419
:102550000C944F130E942C1370F3959FC1F3950FA9
:1025600050E0551F629FF001729FBB27F00DB11D17
:10257000639FAA27F00DB11DAA1F649F6627B00DA7
:10258000A11D661F829F2227B00DA11D621F739F90
:10259000B00DA11D621F839FA00D611D221F749F9E
:1025A0003327A00D611D231F849F600D211D822FE5
:1025B000762F6A2F11249F5750409AF0F1F088230C
:1025C0004AF0EE0FFF1FBB1F661F771F881F915039
:1025D0005040A9F79E3F510580F00C9404130C94D1
:1025E0004F135F3FE4F3983ED4F386957795679554
:1025F000B795F795E7959F5FC1F7FE2B880F911D63
:102600009695879597F9089597F99F6780E870E008
:1026100060E008959FEF80EC089500240A94161658
:10262000170618060906089500240A9412161306C0
:10263000140605060895092E0394000C11F488234E
:1026400052F0BB0F40F4BF2B11F460FF04C06F5F6A
:102650007F4F8F4F9F4F089557FD9058440F551F40
:1026600059F05F3F71F04795880F97FB991F61F014
:102670009F3F79F087950895121613061406551F8B
:10268000F2CF4695F1DF08C0161617061806991FF7
:10269000F1CF86957105610508940895E894BB27EC
:1026A00066277727CB0197F90895A1E21A2EAA1B76
:1026B000BB1BFD010DC0AA1FBB1FEE1FFF1FA217F2
:1026C000B307E407F50720F0A21BB30BE40BF50BEF
:1026D000661F771F881F991F1A9469F76095709578
:1026E000809590959B01AC01BD01CF010895F894B0
:0226F000FFCF1A
:1026F200270227020101000000010101FF181C1E30
:102702001F1E1C180008140803040403005E00BC0A
:10271200007701000000006601B40A390117012B9D
:1027220001AD01000000001B06B40A564D4450568C
:102732005F317C315F564D4450560D0A004869673F
:102742006820416C61726D3A200043004C617365F0
:102752007220436F6E74726F6C6C65720056657294
:102762002E004220302E310031302F3136004443CA
:1027720020706F776572206F6666007761697420DA
:10278200666F72206B6579206F6E004C61736572A3
:10279200206F666600496E74656E736974792000F5
:1027A2006D617820006D696E2000202520006E6129
:0E27B2006E00696E66006F7666006F6E200026
:00000001FF
